:020000040800F2
:1000000000000320BD0E00088D3100089531000866
:100010009D310008A5310008AD3100080000000046
:10002000000000000000000000000000B5310008E2
:10003000C331000800000000D1310008DF310008A2
:10004000110F0008110F0008110F000851320008AD
:10005000110F0008110F0008110F0008110F000800
:10006000110F0008110F0008110F0008110F0008F0
:10007000110F0008110F0008110F0008110F0008E0
:10008000110F0008110F0008110F0008110F0008D0
:10009000110F0008110F0008110F0008110F0008C0
:1000A000110F0008110F00085D320008110F000841
:1000B000110F0008110F0008110F0008110F0008A0
:1000C000110F0008110F0008110F0008110F000890
:1000D000ED310008110F0008110F0008110F000882
:1000E00039320008110F0008110F0008110F000825
:1000F000213200082D32000801320008110F0008DB
:10010000110F0008110F0008110F0008110F00084F
:10011000110F0008110F0008110F0008110F00083F
:10012000110F0008110F00080D320008110F000810
:0C013000110F0008110F0008110F00084B
:1001400010B5054C237833B9044B13B10448AFF311
:1001500000800123237010BDE00200200000000099
:10016000A036010808B5034B1BB103490348AFF3A0
:10017000008008BD00000000E4020020A036010855
:1001800010F8012B11F8013B012A28BF9A42F7D041
:10019000D01A7047000000000000000000000000BE
:1001A00001F0FF01102A2BDB10F0070F08D010F828
:1001B000013B013A8B422DD010F0070F42B3F6D12C
:1001C000F0B441EA012141EA014122F007047FF045
:1001D00000070023F0E80256083C85EA010586EA9C
:1001E000010685FA47F5A3FA87F586FA47F6A5FAD8
:1001F00087F68EB9EED1F0BC01F0FF0102F00702E4
:1002000032B110F8013B013A83EA010313B1F8D18E
:100210000020704701387047002D06BF354603386F
:10022000073815F0010F07D1013015F4807F02BFA8
:10023000013015F4C03F0130F0BC0138704700BFF9
:10024000034613F8012B002AFBD1181A0138704716
:1002500081F0004102E000BF83F0004330B54FEA77
:1002600041044FEA430594EA050F08BF90EA020FE4
:100270001FBF54EA000C55EA020C7FEA645C7FEA77
:10028000655C00F0E2804FEA5454D4EB5555B8BF9A
:100290006D420CDD2C4480EA020281EA030382EA0B
:1002A000000083EA010180EA020281EA0303362D9D
:1002B00088BF30BD11F0004F4FEA01314FF4801C70
:1002C0004CEA113102D0404261EB410113F0004F82
:1002D0004FEA03334CEA133302D0524263EB430339
:1002E00094EA050F00F0A780A4F10104D5F1200ED7
:1002F0000DDB02FA0EFC22FA05F2801841F1000132
:1003000003FA0EF2801843FA05F359410EE0A5F105
:1003100020050EF1200E012A03FA0EFC28BF4CF036
:10032000020C43FA05F3C01851EBE37101F00045EC
:1003300007D54FF0000EDCF1000C7EEB00006EEBF9
:100340000101B1F5801F1BD3B1F5001F0CD3490883
:100350005FEA30004FEA3C0C04F101044FEA4452DA
:1003600012F5800F80F09A80BCF1004F08BF5FEA61
:10037000500C50F1000041EB045141EA050130BD41
:100380005FEA4C0C404141EB0101013C28BFB1F553
:10039000801FE9D291F0000F04BF01460020B1FA9E
:1003A00081F308BF2033A3F10B03B3F120020CDA71
:1003B0000C3208DD02F1140CC2F10C0201FA0CF04F
:1003C00021FA02F10CE002F11402D8BFC2F1200CB4
:1003D00001FA02F120FA0CFCDCBF41EA0C0190406A
:1003E000E41AA2BF01EB0451294330BD6FEA0404B3
:1003F0001F3C1CDA0C340EDC04F11404C4F120029E
:1004000020FA04F001FA02F340EA030021FA04F3AF
:1004100045EA030130BDC4F10C04C4F1200220FA06
:1004200002F001FA04F340EA0300294630BD21FA44
:1004300004F0294630BD94F0000F83F4801306BF0A
:1004400081F480110134013D4EE77FEA645C18BFFE
:100450007FEA655C29D094EA050F08BF90EA020F95
:1004600005D054EA000C04BF1946104630BD91EA8D
:10047000030F1EBF0021002030BD5FEA545C05D190
:100480004000494128BF41F0004130BD14F58004CF
:100490003CBF01F5801130BD01F0004545F0FE4143
:1004A00041F470014FF0000030BD7FEA645C1ABF78
:1004B000194610467FEA655C1CBF0B46024650EAAF
:1004C000013406BF52EA033591EA030F41F40021DB
:1004D00030BD00BF90F0000F04BF0021704730B561
:1004E0004FF4806404F132044FF000054FF0000136
:1004F00050E700BF90F0000F04BF0021704730B5F7
:100500004FF4806404F1320410F0004548BF4042CB
:100510004FF000013EE700BF42004FEAE2014FEA20
:1005200031014FEA02701FBF12F07F4393F07F4FFB
:1005300081F06051704732F07F4208BF704793F0FE
:100540007F4F04BF41F40021704730B54FF4607411
:1005500001F0004521F000411CE700BF50EA010214
:1005600008BF704730B54FF000050AE050EA0102BD
:1005700008BF704730B511F0004502D5404261EB2D
:1005800041014FF4806404F132045FEA915C3FF46E
:10059000D8AE4FF003025FEADC0C18BF03325FEA0B
:1005A000DC0C18BF033202EBDC02C2F1200300FABC
:1005B00003FC20FA02F001FA03FE40EA0E0021FAE1
:1005C00002F11444BDE600BF70B54FF0FF0C4CF4CF
:1005D000E06C1CEA11541DBF1CEA135594EA0C0F81
:1005E00095EA0C0F00F0DEF82C4481EA030621EABC
:1005F0004C5123EA4C5350EA013518BF52EA0335F7
:1006000041F4801143F4801338D0A0FB02CE4FF0A8
:100610000005E1FB02E506F00042E0FB03E54FF0D8
:100620000006E1FB03569CF0000F18BF4EF0010ED0
:10063000A4F1FF04B6F5007F64F5407404D25FEACC
:100640004E0E6D4146EB060642EAC62141EA55517F
:100650004FEAC52040EA5E504FEACE2EB4F1FD0CC1
:1006600088BFBCF5E06F1ED8BEF1004F08BF5FEA3F
:10067000500E50F1000041EB045170BD06F00046F1
:1006800046EA010140EA020081EA0301B4EB5C049E
:10069000C2BFD4EB0C0541EA045170BD41F4801196
:1006A0004FF0000E013C00F3AB8014F1360FDEBFBB
:1006B000002001F0004170BDC4F10004203C35DA97
:1006C0000C341BDC04F11404C4F1200500FA05F31A
:1006D00020FA04F001FA05F240EA020001F00042BB
:1006E00021F0004110EBD37021FA04F642EB060131
:1006F0005EEA430E08BF20EAD37070BDC4F10C045B
:10070000C4F1200500FA04F320FA05F001FA04F21E
:1007100040EA020001F0004110EBD37041F100010A
:100720005EEA430E08BF20EAD37070BDC4F1200515
:1007300000FA05F24EEA020E20FA04F301FA05F27D
:1007400043EA020321FA04F001F0004121FA04F225
:1007500020EA020000EBD3705EEA430E08BF20EAF5
:10076000D37070BD94F0000F0FD101F0004640002F
:1007700041EB010111F4801F08BF013CF7D041EAB1
:10078000060195F0000F18BF704703F000465200B5
:1007900043EB030313F4801F08BF013DF7D043EA86
:1007A0000603704794EA0C0F0CEA135518BF95EA3C
:1007B0000C0F0CD050EA410618BF52EA4306D1D1C3
:1007C00081EA030101F000414FF0000070BD50EAE2
:1007D000410606BF1046194652EA430619D094EA6C
:1007E0000C0F02D150EA013613D195EA0C0F05D156
:1007F00052EA03361CBF104619460AD181EA0301AA
:1008000001F0004141F0FE4141F470014FF0000061
:1008100070BD41F0FE4141F4780170BD70B54FF0FC
:10082000FF0C4CF4E06C1CEA11541DBF1CEA13557C
:1008300094EA0C0F95EA0C0F00F0A7F8A4EB05045E
:1008400081EA030E52EA03354FEA013100F0888055
:100850004FEA03334FF0805545EA131343EA12631E
:100860004FEA022245EA111545EA10654FEA0026D3
:100870000EF000419D4208BF964244F1FD0404F58C
:10088000407402D25B084FEA3202B61A65EB0305E8
:100890005B084FEA32024FF480104FF4002CB6EBA5
:1008A000020E75EB030E22BFB61A754640EA0C0025
:1008B0005B084FEA3202B6EB020E75EB030E22BF65
:1008C000B61A754640EA5C005B084FEA3202B6EBA6
:1008D000020E75EB030E22BFB61A754640EA9C0065
:1008E0005B084FEA3202B6EB020E75EB030E22BF35
:1008F000B61A754640EADC0055EA060E18D04FEAF3
:10090000051545EA16754FEA06164FEAC30343EA92
:1009100052734FEAC2025FEA1C1CC0D111F4801F5F
:100920000BD141EA00014FF000004FF0004CB6E758
:1009300011F4801F04BF01430020B4F1FD0C88BFF7
:10094000BCF5E06F3FF6AFAEB5EB030C04BFB6EB02
:10095000020C5FEA500C50F1000041EB045170BDF5
:100960000EF0004E4EEA113114EB5C04C2BFD4EB22
:100970000C0541EA045170BD41F480114FF0000EA6
:10098000013C90E645EA060E8DE60CEA135594EA22
:100990000C0F08BF95EA0C0F3FF43BAF94EA0C0F25
:1009A0000AD150EA01347FF434AF95EA0C0F7FF49A
:1009B00025AF104619462CE795EA0C0F06D152EAEE
:1009C00003353FF4FDAE1046194622E750EA4106D2
:1009D00018BF52EA43067FF4C5AE50EA41047FF4E3
:1009E0000DAF52EA43057FF4EBAE12E74FF0FF3C48
:1009F00006E000BF4FF0010C02E000BF4FF0010C19
:100A00004DF804CD4FEA410C7FEA6C5C4FEA430C91
:100A100018BF7FEA6C5C1BD001B050EA410C0CBFE0
:100A200052EA430C91EA030F02BF90EA020F002042
:100A3000704710F1000F91EA030F58BF994208BFA9
:100A400090422CBFD8176FEAE37040F00100704766
:100A50004FEA410C7FEA6C5C02D150EA013C07D1BD
:100A60004FEA430C7FEA6C5CD6D152EA033CD3D008
:100A70005DF8040B704700BF8446104662468C4602
:100A80001946634600E000BF01B5FFF7B7FF002835
:100A900048BF10F1000F01BD4DF808EDFFF7F4FF5E
:100AA0000CBF012000205DF808FB00BF4DF808EDE9
:100AB000FFF7EAFF34BF012000205DF808FB00BF0C
:100AC0004DF808EDFFF7E0FF94BF012000205DF82E
:100AD00008FB00BF4DF808EDFFF7CEFF94BF0120E3
:100AE00000205DF808FB00BF4DF808EDFFF7C4FFDC
:100AF00034BF012000205DF808FB00BF4FEA410C25
:100B00007FEA6C5C02D150EA013C0AD14FEA430C07
:100B10007FEA6C5C02D152EA033C02D14FF0000044
:100B200070474FF0010070474FEA410212F5001282
:100B300015D211D56FF47873B3EB625212D94FEA24
:100B4000C12343F0004343EA505311F0004F23FA0E
:100B500002F018BF404270474FF00000704750EA63
:100B6000013005D111F0004008BF6FF00040704720
:100B70004FF00000704700BF53B94AB9002908BFC1
:100B800000281CBF4FF0FF314FF0FF3000F088B954
:100B9000ADF1080C6DE904CE00F006F8DDF804E0D4
:100BA000DDE9022304B070472DE9F047089D8E4629
:100BB00004468846002B4AD18A42174662D9B2FAC7
:100BC00082F64EB1C6F1200301FA06F820FA03F3CB
:100BD000B74043EA0808B4404FEA174E1FFA87FCB3
:100BE000B8FBFEF1230C0EFB118843EA084301FB1E
:100BF0000CF29A4209D9FB1801F1FF3080F0EA802B
:100C00009A4240F2E78002393B449A1AA3B2B2FBFF
:100C1000FEF00EFB102243EA024300FB0CFC9C4555
:100C200009D9FB1800F1FF3280F0D6809C4540F2D4
:100C3000D3803B44023840EA0140A3EB0C0300217F
:100C40001DB1F3400022C5E90032BDE8F0878B42B8
:100C500005D90DB1C5E9000100210846F5E7B3FA51
:100C600083F1002946D1734502D3824200F2058107
:100C7000841A6EEB030201209046002DE5D0C5E9F1
:100C80000048E2E7002A00F09080B2FA82F6002ED7
:100C900040F0A4808A1A030C4FEA174E80B2BCB20F
:100CA0000121B2FBFEFC0EFB1C2243EA024304FBC3
:100CB0000CF29A4207D9FB180CF1FF3802D29A4283
:100CC00000F2E080C4469B1AB3FBFEF20EFB123327
:100CD00040EA034302FB04F49C4207D9FB1802F1EB
:100CE000FF3002D29C4200F2CA8002461B1B42EA3D
:100CF0000C40A5E7C1F120068B4022FA06F71F43FE
:100D00000EFA01F420FA06F32EFA06FE4FEA17490E
:100D1000234300FA01F81FFA87FCBEFBF9F01C0C14
:100D200009FB10EE44EA0E4400FB0CFEA64502FA55
:100D300001F209D93C1900F1FF3A80F09C80A645E8
:100D400040F2998002383C44A4EB0E041FFA83FE63
:100D5000B4FBF9F309FB13444EEA044403FB0CFC17
:100D6000A44508D93C1903F1FF3E80F08280A445D8
:100D70007FD9023B3C4443EA0040A4EB0C04A0FBB7
:100D800002EC64457346E14662D35FD05DB1B8EBD7
:100D9000030264EB090404FA06F622FA01F31E4387
:100DA000CC40C5E9006400214FE7B1FBF2FC010C27
:100DB00041EA0E4180B240EA01423B4638463C4699
:100DC000B846BE462026B1FBF7F1A2EB080241EA85
:100DD0000C4166E7014618E710462CE7C6F12002F1
:100DE0002EFA02F3B740B14020FA02F24FEA174E52
:100DF0000A43B3FBFEF8BCB20EFB1833110C41EAF8
:100E0000034108FB04F9B04089454FEA104380B222
:100E10003ED9791808F1FF3C01D289451FD8A1EBD2
:100E20000901B1FBFEF909FB04F80EFB191192B29E
:100E300042EA0142424529D2BA1809F1FF31C4D22F
:100E40004245C2D2A9F102013A44BEE7F0459DD223
:100E5000BEEB02036CEB070C0138E14696E7A7EB0B
:100E600009094944A8F1020CB1FBFEF909FB04F899
:100E7000DBE773467FE7504666E70846FDE63B44FE
:100E8000023A33E7ACF1020C3B441CE749469CE7CD
:100E9000A1EB0901C446B1FBFEF909FB04F8C4E764
:100EA000704700BFD458C4500433C4188C42F9D3DF
:100EB0007047036004308842FBD370470C48854676
:100EC00005F01CFD0B480C490C4A0023FFF7EDFF11
:100ED0000B480C490023FFF7EEFF0B480B4900239A
:100EE000FFF7E9FF10F0C6FB01F0A0FCFEE70000F1
:100EF00000000320080000207C020020945C010810
:100F0000E0020020A41E0020E4010320670A032061
:100F1000FEE7000080B483B000AF7860064BD3F8E2
:100F2000902005497B681343C1F8903000BF0C370F
:100F3000BD465DF8047B70470008005880B485B05A
:100F400000AF78604FF0B043DA6C4FF0B0417B688F
:100F50001343CB644FF0B043DA6C7B681340FB6003
:100F6000FB6800BF1437BD465DF8047B704780B452
:100F700085B000AF78604FF0B043D3F84C214FF00C
:100F8000B0417B681343C1F84C314FF0B043D3F804
:100F90004C217B681340FB60FB6800BF1437BD46E3
:100FA0005DF8047B704780B500AF05F06DFD05F07E
:100FB00071FD4FF48030FFF7ADFF0CF0D3FE00F071
:100FC00021F800F0C1F800BF80BD0000B0B588B0C6
:100FD00000AF0B4B3C1D1D460FCD0FC495E807001D
:100FE00003C422800234130C23700EF0A3FD3B1DBA
:100FF00018460DF0FCFB00BF2037BD46B0BD00BF5A
:10100000B836010880B588B000AF3B1D00221A60D9
:101010005A609A60DA601A610023BB8300237B83E5
:1010200000233B830023FB7736E0FB7F434ADB0052
:1010300013449B79002B2CD0FB7F404A52F833306D
:101040003F4A93421BD03E4A934221D8B3F1904F7E
:1010500003D03C4A934209D01AE0FB7F374ADB00B9
:1010600013449A88BB8B1343BB8312E0FB7F334A44
:10107000DB0013449A887B8B13437B8309E0FB7F5F
:101080002E4ADB0013449A883B8B13433B8300E0DA
:1010900000BFFB7F0133FB77FB7F252BC5D90023E6
:1010A000FB600123BB6003233B61BB8B002B14D08F
:1010B000BB8B7B600120FFF741FF0120FFF757FF4B
:1010C0003B1D19464FF0904006F006FABB8B0022FC
:1010D00019464FF0904006F04DFC7B8B002B12D050
:1010E0007B8B7B600220FFF729FF0220FFF73FFF89
:1010F0003B1D1946134806F0EFF97B8B0022194679
:10110000104806F037FC3B8B002B13D03B8B7B60E9
:101110000420FFF713FF0420FFF729FF3B1D1946AA
:10112000074806F0D9F93B8B00221946044806F01F
:1011300021FC00BF00BF2037BD4680BD144E010812
:10114000000800480004004880B400AF00BFBD465E
:101150005DF8047B704780B500AF01F051FC00BF23
:1011600080BD80B584B000AFF8600B467A607B81AB
:101170007A897B68F968002001F05EFA00BF1037B9
:10118000BD4680BD80B483B000AF7860074BD3F814
:10119000803023F0070205497B681343C1F8803093
:1011A00000BF0C37BD465DF8047B70470004005853
:1011B00080B483B000AF7860064BD3F89020054927
:1011C0007B681343C1F8903000BF0C37BD465DF813
:1011D000047B70470008005880B483B000AF78608B
:1011E0004FF0B0430A4AC3F89C204FF0B043D3F805
:1011F0009C3023F47C527B681B024FF0B0411343B8
:10120000C1F89C3000BF0C37BD465DF8047B7047C9
:10121000FECAFECA80B483B000AF78604FF0B0431E
:101220009B6823F400424FF0B0417B6813438B600E
:1012300000BF0C37BD465DF8047B704780B400AF3B
:10124000044B1B68C3F30B031846BD465DF8047BD3
:10125000704700BF002004E080B400AF044B1B685F
:101260001B0C9BB21846BD465DF8047B704700BF5F
:10127000002004E080B400AF054B1B69044A23F052
:101280000403136100BFBD465DF8047B704700BFD7
:1012900000ED00E080B483B000AF78607B68FF228F
:1012A0005A6200BF0C37BD465DF8047B704780B4BE
:1012B00083B000AF78607B68CA225A627B68532291
:1012C0005A6200BF0C37BD465DF8047B704780B49E
:1012D00083B000AF786039607B689B6823F00702B9
:1012E0003B681A437B689A6000BF0C37BD465DF8C7
:1012F000047B704780B500AF044B4FF400421A6185
:1013000000F062F800F067F800BF80BD00400058B0
:1013100080B500AF00F073F800F08CF81F49002092
:1013200000F0FAFEFFF73FFE012101200EF0C4FF9E
:101330000021002004F0BCFE19480EF08FFC0020B4
:101340000EF0E2FC0021002005F0D6F8002004F0A9
:101350007FFF002004F0A8FF12480EF01DFDFF20C3
:101360000EF0F2FC00200EF003FD0021002005F03D
:10137000C3F8002004F098FF01230B4A002100204D
:101380000EF080FD002004F08FFF00F0B5F900F0B2
:101390002DFA00F05DF800BF80BD00BFF40400200E
:1013A000A4530108A4000020D436010880B400AF83
:1013B00000BFBD465DF8047B704780B500AF50208C
:1013C000FFF7F6FE00BF80BD80B400AF00BFBD4692
:1013D0005DF8047B704780B582B000AF00200DF04F
:1013E000C7F978607B68002B05D07B689B7918462D
:1013F000FFF7F2FE00BF00BF0837BD4680BD80B5D5
:1014000000AFFFF7D3FFFFF7D8FF00F003F800BFEE
:1014100080BD000080B500AF0548FFF748FF002100
:101420000348FFF754FF0248FFF734FF00BF80BDB9
:101430000028004080B500AF4FF40040FFF7EAFEFF
:101440000EF028FF0420FFF79DFE00BF80BD0000C6
:1014500080B588B000AF0EF0B3F9114A002110201A
:101460000FF0DCF80F4B3B600F4B7B603B4619469F
:101470000E480DF097FA0E4BBB600E4BFB600E4B07
:101480003B6140F23C537B6107F1080318460EF0C4
:10149000DDFA0EF08FF900BF2037BD4680BD00BFDA
:1014A000DDE9000834070320BD140008D514000846
:1014B0004C09032040080320F801032080B483B0C6
:1014C00000AF0346FB7100BF0C37BD465DF8047BDF
:1014D0007047000080B588B000AF78607B685B68BB
:1014E0000B33FB61FB691B889BB2A3F51243072BEF
:1014F00060D801A252F823F0191500085B15000806
:1015000069150008B515000885150008951500082F
:101510009D150008AD15000807F10C0318460DF0E5
:1015200093F93B7B19467B7B1A46BB7B24480FF023
:10153000D7FE3B7C194623480FF0D2FEBB7D1946EF
:10154000FB7D1A463B7E20480FF0CAFE1F480FF075
:10155000C7FE786800F070F82DE01D480FF0C0FE5F
:10156000786800F043F826E01A480FF029FFFB697D
:1015700002331968FB6902335B681A4616480FF09C
:10158000AFFE18E0FB6902331B68194613480FF0E1
:10159000A7FE10E012480FF0A3FE0CE0FB69023337
:1015A0001B6819460F480FF09BFE04E00E480FF031
:1015B00097FE00E000BF00BF2037BD4680BD00BFE2
:1015C000E83601080C3701082837010840370108C0
:1015D0006037010884370108D4370108FC37010857
:1015E000383801085C3801089838010880B584B0A3
:1015F00000AF78607B685B680B33FB60FB6802338D
:10160000BB60BB681B78194608480FF069FEBB68D1
:101610001B78002B03D106480FF0D2FE03E00548EB
:101620000FF0CEFE00BF1037BD4680BDBC380108AC
:10163000EC3801082839010880B58AB000AF78601D
:1016400007F1080300221A605A609A60DA600023EA
:101650007B6200233B627B685B680B33FB61FB6949
:101660000233BB61BB691B78002B28D11D480FF0EA
:10167000A7FEFFF7ABFC0F233B727F23BB72FFF784
:10168000EBFD7862796A18480FF02AFE7B6A9BB2FC
:10169000BB82FFF7D3FD3862396A14480FF020FE91
:1016A0003B6A9BB2FB8207F1080318460DF0B6F8BF
:1016B00001F0A8FE002101200EF0FEFD0EE0BB6946
:1016C0001B78012B06D10A480FF00AFE7B68002226
:1016D0001A7003E007480FF003FE00BF2837BD462D
:1016E00080BD00BF603901087C390108A0390108BC
:1016F000C0390108F439010880B500AF012100208C
:1017000004F0EAFA0121012004F0E6FA00BF80BDEE
:1017100080B584B000AF786005F092F9B8607B685E
:10172000FB60FB68B3F1FF3F0AD005F0A1F9034667
:101730001A46FB681344FB6002E0FFF79BFD30BFD5
:1017400005F07EF90246BB68D31AFA689A42F4D8CB
:1017500000BF00BF1037BD4680BD80B500AF4FF061
:10176000FF300EF0D9FD00BF80BD80B400AF00BFD8
:10177000BD465DF8047B704780B582B000AF7860ED
:10178000002110200EF06CFF00BF0837BD4680BD61
:1017900080B582B000AF786002200EF0CDFF00BFB0
:1017A0000837BD4680BD80B582B000AF78600220AA
:1017B0000EF0E2FF00BF0837BD4680BD80B582B0A5
:1017C00000AF0346FB80FB88B3F5805F03D0B3F521
:1017D000005F03D005E002F073FA02E002F08EFA37
:1017E00000BF00BF0837BD4680BD000080B500AF18
:1017F000034B01220349002000F0FAFE00BF80BD28
:10180000091800080403002080B500AF154B1B88A1
:10181000FF2B1ED8144B1B780D2B0FD113491448E6
:101820000FF05EFD00F028F80E4B00221A804FF4F6
:10183000807200210D480FF0C5FE0AE0094B1B889D
:101840005A1C91B2074A11801A46074B1978074B68
:101850009954084B01220449002000F0C9FE00BF42
:1018600080BD00BF0C040020040300200C030020F6
:10187000283A01080918000880B500AF1349144838
:10188000FEF77EFC0346002B09D112480FF098FDAD
:10189000114B124A1A60104805F0FCFD14E0104983
:1018A0000B48FEF76DFC0346002B09D10D480FF0E5
:1018B00087FD094B0C4A1A60074805F0EBFD03E071
:1018C00003490A480FF00CFD00BF80BD383A0108FB
:1018D0000C0300203C3A0108FC0200200C0000161A
:1018E000443A0108483A01080D000016503A010830
:1018F00080B483B000AF7860064BD3F880200549F0
:101900007B681343C1F8803000BF0C37BD465DF8DB
:10191000047B70470008005880B483B000AF786043
:10192000054B1A6804497B6813430B6000BF0C37F2
:10193000BD465DF8047B70470008005880B483B052
:1019400000AF0D4B9B6A9BB27B600B4B9B6A9BB2BB
:101950003B6005E03B687B60074B9B6A9BB23B604A
:101960007A683B689A42F5D13B6818460C37BD4609
:101970005DF8047B704700BF0028004080B485B04C
:1019800000AF03460A46FB711346BB71BA791D4985
:1019900013465B001344DB000B4415331B78FB73C9
:1019A000FB7B062B09D0FA7B164913465B001344D8
:1019B000DB000B441433FA791A70FA791149134693
:1019C0005B001344DB000B441533FA7B1A70FA7981
:1019D0000C4913465B001344DB000B441433BA7903
:1019E0001A70BA79074913465B001344DB000B44B5
:1019F0001533FA791A7000BF1437BD465DF8047BC1
:101A0000704700BF1004002080B485B000AF0346CB
:101A10000A46FB711346BB71294B1B78DBB2BA79BE
:101A20009A4232D0BA79274913465B001344DB004F
:101A30000B4414331B78FB73FA7B224913465B007B
:101A40001344DB000B441533FA791A70FA791D49F7
:101A500013465B001344DB000B441533BA791A704C
:101A6000FA79184913465B001344DB000B44143326
:101A7000FA7B1A70BA79134913465B001344DB00F2
:101A80000B441433FA791A7014E0FA790D491346AD
:101A90005B001344DB000B441533BA791A70BA7932
:101AA000084913465B001344DB000B441433FA79F6
:101AB0001A7000BF1437BD465DF8047B704700BF45
:101AC000A00400201004002080B584B000AF0346BD
:101AD000FB714E4B1B78DBB2062B18D14B4B1B789E
:101AE000DAB24B4B1A70494AFB791370FA794949BB
:101AF00013465B001344DB000B44153306221A70B7
:101B0000454B4FF0FF321A600023FB8178E000F074
:101B100009F90346FB81FA793E4913465B001344F9
:101B2000DB000B4408331968FB89FA7919443948FA
:101B300013465B001344DB00034408331960FA7951
:101B4000344913465B001344DB000B4408331B6825
:101B5000BB602E4B1B78DBB219462E4A0B465B004E
:101B60000B44DB00134408331B68BA689A4237D32E
:101B7000264B1B787B737A7B264913465B00134404
:101B8000DB000B4415331B783B7313E07A7B214950
:101B900013465B001344DB000B4415331B787B7347
:101BA0007A7B1C4913465B001344DB000B4415335E
:101BB0001B783B733B7B062B0BD03A7B15491346B6
:101BC0005B001344DB000B4408331B68BA689A427D
:101BD000DCD27A7BFB7911461846FFF7CFFE0FE087
:101BE0000A4B1B78DAB2FB7911461846FFF70CFF57
:101BF000064B1B78DAB2064B1A70044AFB79137055
:101C0000FB8918461037BD4680BD00BFA0040020E8
:101C1000A104002010040020A404002080B485B09A
:101C200000AF03460A46FB711346BB71394B1B7864
:101C3000DBB2FA799A4211D1364B1B78DAB2364BC5
:101C40001A70FA79354913465B001344DB000B44E4
:101C500015331B78DAB22F4B1A703EE0FA792F4910
:101C600013465B001344DB000B4414331B78FB73F7
:101C7000FA792A4913465B001344DB000B44153301
:101C80001B78BB73F979FA7B24480B465B000B4445
:101C9000DB00034415331B78D8B2204913465B00A0
:101CA0001344DB000B44153302461A70BB7B062B32
:101CB00013D0F979BA7B19480B465B000B44DB0063
:101CC000034414331B78D8B2144913465B00134401
:101CD000DB000B44143302461A70FA790F4913469D
:101CE0005B001344DB000B440C3301221A70094BD8
:101CF0001B78DBB2062B07D1BB79002B04D1084B34
:101D00004FF0FF321A6000BF00BF1437BD465DF8C8
:101D1000047B7047A0040020A104002010040020D0
:101D2000A404002080B582B000AF1A4B1B68B3F149
:101D3000FF3F26D0FFF702FE7860164B1B687A68DB
:101D40009A4205D8134B1A687B68D31A7B600AE065
:101D5000114B1B881A467B68D31A3B600D4B1B68DE
:101D60003A6813447B600D4B1B781A467B6802FB74
:101D700003F37B600A4B1B781A467B68D3407B6079
:101D800001E000237B607B689BB218460837BD46A4
:101D900080BD00BFA4040020AC040020AA040020E1
:101DA000A904002080B582B000AF0346FB80FB8809
:101DB000002B08D1FFF7C2FD0346214A1360032020
:101DC00004F0EBFF39E0FB88012B03D81D4B1B7897
:101DD000012B02D0FB88013BFB8000BF1A4B1B6824
:101DE000DB6803F00403002BF8D0174B1B68DB689B
:101DF000DAB2154B1B6862F49062DA60134B4FF451
:101E00000022DA60032004F0D6FF114B5B691B0C43
:101E10001B04FA880E4913434B61FFF78FFD0346FD
:101E2000074A1360084B1B689A68074B1B6842F40B
:101E300080629A60AFF3008000BF0837BD4680BD66
:101E4000A4040020A9040020F40400200008005885
:101E50000028004080B584B000AF454B9B6803F478
:101E60008063B3F5806F07D100BF424B1B68DB680E
:101E700003F00403002BF8D13E4B1B689A683D4BDE
:101E80001B6822F480629A603B4B1B78FB73FA7BE1
:101E90003A4913465B001344DB000B4408331B68CC
:101EA000BB60FFF73FFF0346FB80FB88BA689A429E
:101EB00005D20023BB81324B01221A704DE0FB8812
:101EC000304A128892B213441A46BB68934206D92C
:101ED0002C4B1B88BB812A4B00221A703DE0BB684B
:101EE0009AB2FB88D31ABB81254B01221A7034E0C9
:101EF000FA7B224913465B001344DB000B44083392
:101F00001A68FB889A420AD2FA7B1C4913465B0086
:101F10001344DB000B44083300221A6013E0FA7B01
:101F2000164913465B001344DB000B440833196861
:101F3000FB88FA7BC91A114813465B001344DB0087
:101F4000034408331960FA7B0C4913465B001344C1
:101F5000DB000B4415331B78FB73FB7B062BC7D1CF
:101F6000BB891846FFF71EFF00BF1037BD4680BD76
:101F700000280040F4040020A004002010040020E9
:101F8000A8040020AE04002080B58AB000AFEFF3B3
:101F900010837B617B697B6272B600BF594B1B6803
:101FA000CA225A62574B1B6853225A62554B1B6810
:101FB0009A68544B1B6822F480629A60524B1B78DB
:101FC00087F8233097F82320504913465B001344C9
:101FD000DB000B440C331B78DBB2022B6ED197F87D
:101FE00023204A4913465B001344DB000B441B6863
:101FF000FB6197F82320454913465B001344DB003F
:102000000B4410331B68BB61414B1B78DBB2002BC8
:102010004CD097F823203D4913465B001344DB0066
:102020000B440D331B78DBB2012B24D197F82330FE
:1020300001211846FFF7F2FD7B6A3B613B6983F3A0
:10204000108800BF97F82320304913465B001344E3
:10205000DB000B4404331A6897F823301146184606
:1020600000F032FA274B1B68CA225A62254B1B68C4
:1020700053225A6212E07B6AFB60FB6883F310888C
:1020800000BF97F82330184600F09AF91D4B1B68E3
:10209000CA225A621B4B1B6853225A6297F823309C
:1020A000FA691946B86900F095FA22E0FFF7D2FE06
:1020B0007B6ABB60BB6883F310881AE000BF114BDA
:1020C0001B68DB6803F00403002BF8D00D4B1B6882
:1020D000DB68DAB20B4B1B6862F49062DA600D4B7E
:1020E0004FF40022DA607B6A7B607B6883F31088A0
:1020F00000BF044B1B68FF225A6200BF2837BD4651
:1021000080BD00BFF4040020A004002010040020C3
:10211000A80400200008005880B588B000AF03462E
:102120003960FB715E4B1B68CA225A625C4B1B68AC
:1021300053225A625B4B9B685A4A43F020039360D8
:10214000584B9B68DBB203F00703DBB2C3F1040317
:10215000DAB2554B1A70534B1B6903F4FE034FF46C
:10216000FE023A613A6992FAA2F2FA60FA687A617A
:102170007A69002A01D1202203E07A69B2FA82F258
:10218000D2B2D340DBB20133DAB2484B1A70454BBE
:102190001B699BB2C3F30E039BB201339AB2444B4B
:1021A0001A80434B1B88013B404A127802FB03F321
:1021B000A3F5A0733C4A1278D340BB61BB694FF6CC
:1021C000FE72934204D93B4B4FF6FF721A8003E034
:1021D000BB699AB2374B1A804FF40020FFF79CFB83
:1021E0004FF40020FFF784FBFB79002B3DD1324BED
:1021F00001221A70314B4FF0FF321A600023FB7737
:102200000CE0FA7F2E4913465B001344DB000B44BD
:102210000C3300221A70FB7F0133FB77FB7F052B09
:10222000EFD9284B06221A701D4B1B689A681C4B6D
:102230001B6822F480629A60194B1B68DB68DAB273
:10224000174B1B6862F49062DA601F4B4FF4002258
:10225000DA60032004F0AFFD114B1B689A68104B45
:102260001B6842F480429A6009E00D4B1B68DB68F2
:1022700003F48063002B02D0032004F08EFD084B92
:102280001B68FF225A6200220321032004F043FD51
:10229000032004F05AFD00BF2037BD4680BD00BFBB
:1022A000F404002000280040A9040020AA04002013
:1022B000AC040020AE040020A8040020A4040020E8
:1022C00010040020A00400200008005880B48BB047
:1022D00000AFF860B9603B601346FB71002387F8DC
:1022E0002630EFF31083FB61FB693B6272B600BFDF
:1022F00004E097F82630013387F8263097F8263027
:10230000052B0CD897F826202C4913465B00134464
:10231000DB000B440C331B78DBB2002BE9D197F8C0
:102320002630062B38D097F82620244913465B0028
:102330001344DB000B440C3301221A703B6ABB616F
:10234000BB6983F3108800BF97F826201B4913460A
:102350005B001344DB000B441033FA681A6097F8F3
:102360002620164913465B001344DB000B440D3353
:10237000FA791A7097F82620104913465B00134427
:10238000DB000B443A681A60BB6897F826201A7085
:10239000002387F8273008E03B6A7B617B6983F381
:1023A000108800BF012387F8273097F82730184698
:1023B0002C37BD465DF8047B704700BF1004002039
:1023C00080B586B000AF0346FB71EFF31083FB606E
:1023D000FB687B6172B600BF032004F0C4FC344B81
:1023E0001B68CA225A62324B1B6853225A62FA791E
:1023F000304913465B001344DB000B440C331B785D
:10240000DBB2022B42D1FB7900211846FFF706FC14
:10241000294B1B78FB74FB7C062B2FD1274B9B6829
:1024200003F48063B3F5806F07D100BF204B1B68B6
:10243000DB6803F00403002BF8D11D4B1B689A687E
:102440001B4B1B6822F480629A6000BF184B1B680C
:10245000DB6803F00403002BF8D0154B1B68DB6826
:10246000DAB2134B1B6862F49062DA60144B4FF4DB
:102470000022DA60032004F09EFC07E0114B1B7879
:10248000DBB2FA7C9A4201D0FFF7E4FC084B1B68F0
:10249000FF225A62032004F058FC7B69BB60BB68D2
:1024A00083F3108800BF00BF1837BD4680BD00BF52
:1024B000F404002010040020A004002000280040A4
:1024C00000080058A104002080B586B000AF034684
:1024D0003960FB71FA793B4913465B001344DB001A
:1024E0000B440C331B78DBB2022B03D1FB7918466B
:1024F000FFF766FFEFF31083FB60FB687B6172B64A
:1025000000BF032004F02FFC2F4B1B68CA225A6225
:102510002D4B1B6853225A62FA792A4913465B00F5
:102520001344DB000B440C3302221A70FA7925495C
:1025300013465B001344DB000B4408333A681A600F
:10254000FA79204913465B001344DB000B44043343
:102550003A681A60FB791846FFF7B6FA03467B82A1
:102560001A4B1B787B741A4B1B78DBB27A7C9A422D
:1025700002D0FFF76FFC13E0FA79124913465B00B3
:102580001344DB000B44083319687B8AFA79C91AB3
:102590000C4813465B001344DB0003440833196006
:1025A000094B1B68FF225A62032004F0CEFB7B69B3
:1025B000BB60BB6883F3108800BF00BF1837BD46FF
:1025C00080BD00BF10040020F4040020A0040020FF
:1025D000A104002080B584B000AFF8600B467A609B
:1025E000FB727B68984700BF1037BD4680BD000076
:1025F00080B584B000AFB9607B600346FB731346BF
:10260000BB81FB7B002B0CD1084A7B681360084B15
:10261000084A1A60BB891A46B968054807F0B6FF30
:1026200000E000BF00BF1037BD4680BDB0040020F1
:10263000180500200038014080B586B000AFB960B1
:102640007B600346FB731346BB810023FB750023AD
:10265000BB75FB7B002B0ED1174A7B681360174BB1
:10266000174A1A60BB891A46B968144807F0DAFF9E
:102670000346FB7500E000BFFB7D032B16D801A2CB
:1026800052F823F0952600089B260008A126000892
:10269000A72600080023BB7509E00123BB7506E0EF
:1026A0000223BB7503E00323BB7500E000BFBB7DC5
:1026B00018461837BD4680BDB40400201805002018
:1026C0000038014080B582B000AF78607B681B683D
:1026D0001A46094B9A4207D1084B1B68002B05D0BC
:1026E000064B1B68984701E000BF00E000BF00BF39
:1026F0000837BD4680BD00BF00380140B00400204F
:1027000080B582B000AF78607B681B681A46094BC1
:102710009A4207D1084B1B68002B05D0064B1B685B
:10272000984701E000BF00E000BF00BF0837BD468A
:1027300080BD00BF00380140B404002080B483B0E5
:1027400000AF78604FF0B043D3F8903023F0180218
:102750004FF0B0417B681343C1F8903000BF0C3795
:10276000BD465DF8047B704780B485B000AF7860EB
:102770004FF0B0439A6C4FF0B0417B6813438B64C9
:102780004FF0B0439A6C7B681340FB60FB6800BF5E
:102790001437BD465DF8047B704780B485B000AF48
:1027A00078604FF0B043DA6C4FF0B0417B68134370
:1027B000CB644FF0B043DA6C7B681340FB60FB687E
:1027C00000BF1437BD465DF8047B704780B483B00A
:1027D00000AF78607B68FF225A6200BF0C37BD46AD
:1027E0005DF8047B704780B483B000AF78607B688D
:1027F000CA225A627B6853225A6200BF0C37BD4618
:102800005DF8047B704780B483B000AF78603960B6
:102810007B689B6823F007023B681A437B689A60D9
:1028200000BF0C37BD465DF8047B704780B500AF34
:1028300004F098F8FEF75EFD00F016F800F070F86E
:1028400000F08EF800F034FB00F03AF900F026F9C1
:1028500000F0A2F800F0D4F800F096F8FEF758FD6A
:10286000FEF77BFFFCE7000080B59AB000AF07F1F0
:1028700020034822002118460EF0A4FE3B1D002232
:102880001A605A609A60DA601A615A619A6105F0BA
:102890004BF91020FFF752FF204B1B6823F4C06355
:1028A0001E4A43F4007313601C4B1B6803F4C0639F
:1028B0003B603B6807233B624FF480337B6201231C
:1028C000BB624FF48073FB6240233B630023FB64D5
:1028D00007F12003184605F0BBFC0346002B01D08E
:1028E00000F0EDFA6F237B600223BB600023FB60E6
:1028F00000233B6100237B610023BB610023FB615C
:102900003B1D0121184606F017F80346002B01D0A5
:1029100000F0D5FA00BF6837BD4680BD00040058FE
:1029200080B594B000AF3B465022002118460EF00F
:1029300049FE4FF440533B604FF480437B640223D5
:10294000BB640023FB643B46184606F032FC03469A
:10295000002B01D000F0B3FA00BF5037BD4680BD58
:1029600080B500AF064B074A1A60054805F056F8D7
:102970000346002B01D000F0A2FA00BF80BD00BFCB
:10298000B8040020000C005880B400AF00BFBD4662
:102990005DF8047B7047000080B500AF164B174A06
:1029A0001A60154B00225A60134B0F229A60124B8B
:1029B00047F6FF72DA60104B00221A610E4B0022BC
:1029C0009A610D4B0022DA610B4B00225A610A48D2
:1029D00006F076FE0346002B01D000F070FA07489F
:1029E000FFF701FF00210548FFF70DFF0348FFF740
:1029F000EDFE00BF80BD00BFF404002000280040B1
:102A000080B500AF234B244A1A60224B4FF4E132C9
:102A10005A60204B00229A601E4B0022DA601D4B48
:102A200000221A611B4B0C225A611A4B00229A6138
:102A3000184B4FF40042DA61164B00221A62154B14
:102A400000225A62134B00229A62124807F04EFD90
:102A50000346002B01D000F032FA00210D4809F0A6
:102A6000AEFD0346002B01D000F029FA00210948F1
:102A700009F0E3FD0346002B01D000F020FA0548E1
:102A800009F064FD0346002B01D000F018FA00BFE6
:102A900080BD00BF180500200038014080B500AFA0
:102AA0000420FFF761FE0220FFF75EFE00220F21E7
:102AB0003A2004F030F93A2004F047F900BF80BD15
:102AC00080B586B000AF3B1D00221A605A609A6044
:102AD000DA601A610120FFF760FE0420FFF75DFE57
:102AE0000220FFF75AFE0820FFF757FE1020FFF7DD
:102AF00054FE8020FFF751FE00220321BD4804F060
:102B000039FF00224FF44071BB4804F033FF00222C
:102B10004FF48071B94804F02DFF00220421B84819
:102B200004F028FF25237B600323BB600023FB60A8
:102B30003B1D19464FF0904004F0CEFC3A237B60D9
:102B40000323BB600023FB603B1D1946AA4804F029
:102B5000C3FC40F604437B600023BB600023FB60A2
:102B60003B1D1946A44804F0B7FC4FF400737B608A
:102B70000223BB600023FB6000233B610A237B61CF
:102B80003B1D19469F4804F0A7FC01237B600223EC
:102B9000BB600023FB6000233B6108237B613B1D7E
:102BA0001946954804F098FC4FF480737B6012231B
:102BB000BB600023FB6000233B6104237B613B1D62
:102BC0001946904804F088FC4FF481537B6002233F
:102BD000BB600023FB6000233B6108237B613B1D3E
:102BE0001946884804F078FC4FF400437B600223C8
:102BF000BB600023FB6000233B6101237B613B1D25
:102C000019464FF0904004F067FC4FF480637B60FE
:102C10001223BB600023FB6000233B6104237B6124
:102C20003B1D19464FF0904004F056FC4FF4C05342
:102C30007B600223BB600023FB6000233B610A230F
:102C40007B613B1D19464FF0904004F045FC032387
:102C50007B600223BB600023FB6000233B610523F4
:102C60007B613B1D1946654804F036FCC0237B6040
:102C70000223BB600023FB6000233B6109237B61CF
:102C80003B1D19465C4804F027FC4FF440437B6031
:102C90000223BB600023FB6000233B6105237B61B3
:102CA0003B1D1946574804F017FC12237B60002394
:102CB000BB600023FB603B1D1946514804F00CFC2F
:102CC0004FF480637B600223BB600023FB60002322
:102CD0003B6101237B613B1D19464A4804F0FCFB24
:102CE00004237B600023BB600023FB603B1D19466F
:102CF000444804F0F1FB4FF440737B600223BB6057
:102D00000023FB6000233B6103237B613B1D1946CD
:102D10004FF0904004F0E0FB40237B600223BB6057
:102D20000023FB6000233B6108237B613B1D1946A8
:102D30004FF0904004F0D0FB08237B600223BB607F
:102D40000023FB6000233B610A237B613B1D194686
:102D50004FF0904004F0C0FB03237B600123BB6075
:102D60000023FB6000233B613B1D1946214804F012
:102D7000B3FB4FF440437B600223BB600023FB6046
:102D800000233B6101237B613B1D19461B4804F076
:102D9000A3FB43F210037B600023BB600023FB60B6
:102DA0003B1D1946154804F097FB4FF401737B60F7
:102DB0004FF48813BB600023FB603B1D19460F488E
:102DC00004F08AFB4FF440737B600123BB60002357
:102DD000FB6000233B613B1D1946074804F07CFB68
:102DE00068237B600223BB600023FB6000233B6100
:102DF0000A2309E0001C004800080048000C0048B5
:102E000000100048000400487B613B1D194626481D
:102E100004F062FB08237B604FF48813BB6000233F
:102E2000FB603B1D1946214804F056FB4FF48073AC
:102E30007B600123BB600023FB6000233B613B1DE3
:102E40001946194804F048FB4FF440637B600223A5
:102E5000BB600023FB6000233B6109237B613B1DBA
:102E60001946114804F038FB04237B600123BB6042
:102E70000023FB6000233B613B1D19460B4804F017
:102E80002BFB01237B600223BB600023FB6000233C
:102E90003B610E237B613B1D1946044804F01CFB7B
:102EA00000BF1837BD4680BD000C00480010004828
:102EB00080B400AF00BFBD465DF8047B704780B4AE
:102EC00000AF72B600BF00BFFDE780B483B000AFB3
:102ED00078604FF0B043D3F8903023F440724FF055
:102EE000B0417B681343C1F8903000BF0C37BD463A
:102EF0005DF8047B704780B400AF4FF0B043D3F867
:102F000090304FF0B04243F40043C2F8903000BF1D
:102F1000BD465DF8047B704780B485B000AF786033
:102F20004FF0B043DA6C4FF0B0417B681343CB6491
:102F30004FF0B043DA6C7B681340FB60FB6800BF66
:102F40001437BD465DF8047B704780B485B000AF90
:102F500078604FF0B0431A6D4FF0B0417B68134377
:102F60000B654FF0B0431A6D7B681340FB60FB6844
:102F700000BF1437BD465DF8047B704780B485B050
:102F800000AF78604FF0B0439A6D4FF0B0417B686E
:102F900013438B654FF0B0439A6D7B681340FB6021
:102FA000FB6800BF1437BD465DF8047B704780B4F2
:102FB00085B000AF78604FF0B0431A6E4FF0B0416B
:102FC0007B6813430B664FF0B0431A6E7B68134067
:102FD000FB60FB6800BF1437BD465DF8047B70479B
:102FE00080B500AF4FF40020FFF7AFFF00220021B3
:102FF0002E2003F090FE2E2003F0A7FE00BF80BD20
:1030000080B582B000AF78607B681B68054A934248
:1030100003D14FF48010FFF798FF00BF0837BD467B
:1030200080BD00BF000C005880B596B000AF78603E
:1030300007F108035022002118460EF0C3FA7B68FE
:103040001B68144A934220D104F06EFD04F06CFD1D
:103050004FF48070FFF739FF4FF40063BB604FF40B
:103060008073BB6407F10803184606F0A2F8034614
:10307000002B01D0FFF723FFFFF73DFF4FF48060E7
:10308000FFF77CFF786806F027FC00BF5837BD4685
:1030900080BD00BF0028004080B59CB000AF7860C4
:1030A00007F15C0300221A605A609A60DA601A61C4
:1030B00007F10C035022002118460EF083FA7B68BA
:1030C0001B682E4A934255D10123FB6000237B628B
:1030D00007F10C03184606F06CF80346002B01D0EC
:1030E000FFF7EDFE4FF48040FFF761FF0220FFF78E
:1030F00013FFC023FB6502233B6601237B6603238A
:10310000BB660723FB6607F15C0319461C4804F005
:10311000E3F91C4B1C4A1A601A4B0F225A60194BD8
:1031200010229A60174B0022DA60164B80221A6137
:10313000144B00225A61134B00229A61114B00225A
:10314000DA61104B00221A620E4803F043FE034678
:10315000002B01D0FFF7B3FE7B680A4ADA67094A01
:103160007B68936200220021242003F0D4FD2420F8
:1031700003F0EBFD00BF7037BD4680BD0038014055
:1031800000040048AC0500204404024080B400AFB5
:1031900000BFFDE780B400AF00BFFDE780B400AF23
:1031A00000BFFDE780B400AF00BFFDE780B400AF13
:1031B00000BFFDE780B400AF00BFBD465DF8047BF3
:1031C000704780B400AF00BFBD465DF8047B704718
:1031D00080B400AF00BFBD465DF8047B704780B58A
:1031E00000AF03F019FC00BF80BD000080B500AF48
:1031F000024807F097FA00BF80BD00BF1805002005
:1032000080B500AF04F0E6FB00BF80BD80B500AF25
:10321000024803F0C0FF00BF80BD00BFAC05002026
:1032200080B500AF01F072FB00BF80BD80B500AF7C
:1032300001F0A2FB00BF80BD80B500AF4FF480500D
:1032400004F0B0FB4FF4005004F0ACFB00BF80BDB5
:1032500080B500AFFEF798FE00BF80BD80B500AF1F
:1032600002F024FD00BF80BD80B400AF01231846EA
:10327000BD465DF8047B704780B582B000AF7860D2
:1032800039600EF0F1F9034616221A604FF0FF3351
:1032900018460837BD4680BD80B582B000AF786063
:1032A0004FF0FF317868FFF7E7FF00BFFDE780B51B
:1032B00086B000AFF860B9607A6000237B610AE0F5
:1032C000AFF300800146BB685A1CBA60CAB21A70DC
:1032D0007B6901337B617A697B689A42F0DB7B68AA
:1032E00018461837BD4680BD80B483B000AF786003
:1032F0004FF0FF3318460C37BD465DF8047B70472E
:1033000080B483B000AF786039603B684FF40052FE
:103310005A60002318460C37BD465DF8047B7047A1
:1033200080B483B000AF7860012318460C37BD46E7
:103330005DF8047B704780B485B000AFF860B96079
:103340007A60002318461437BD465DF8047B704749
:1033500080B586B000AF7860144A154BD31A7B61F4
:103360007B693B61134B1B68002B02D1114B124A46
:103370001A60104B1A687B6813443A699A4207D264
:103380000EF072F903460C221A604FF0FF3309E089
:10339000084B1B68FB60074B1A687B681344054A9F
:1033A0001360FB6818461837BD4680BD0000032037
:1033B000001000000C060020A81E002080B400AF02
:1033C000034B1B681846BD465DF8047B704700BF81
:1033D0008075FF1F80B400AF034B1B68DBB218463B
:1033E000BD465DF8047B70478475FF1F80B400AF55
:1033F000034B1B681B0A1846BD465DF8047B7047EB
:103400008475FF1FF0B5B3B004AF07F19C03C7F894
:10341000B4303B1D4322002118460EF0D3F844235C
:103420003B8308237B834FF4A863BB830223BB77D2
:103430000123FB77122387F82030292387F82130D6
:103440009C237B844FF4FA73BB84022387F82730D4
:103450004FF0FF33BB624FF4A473BB85012387F8A1
:103460002E30202387F83130D82387F832300623D6
:1034700087F83330032387F8353040F27263FB86D8
:103480000D2387F83C30042387F83E3000F058FCC9
:10349000012102200CF010FF8B4A002104200DF0C6
:1034A000BDF83B1D18460BF08BF9034687F8B33087
:1034B00097F8B330002B08D097F8B33019468348FB
:1034C0000DF00EFFFFF7FBFC02E081480DF008FF56
:1034D00000F04CFC0CF0C8F87E4B002283F87420FE
:1034E0007C4B4FF6FF729A817B4A002101200DF040
:1034F00095F800F07FFF00F0C1FF784B8922DA7069
:10350000774B002277490020FEF7E0FE714B022244
:10351000DA73704B01229A7341F60D0000F0D6FE6B
:10352000714B80221A80714BA0221A80012000F07A
:10353000DDFDD7F8B4000BF087F90346002B40F00F
:10354000928000F07FFEC7F8AC00D7F8AC300533AE
:103550001B781D46D7F8AC3004331B781E46D7F8CD
:10356000AC3003331B781A46D7F8AC3002331B78E3
:103570001946D7F8AC3001331B781C46D7F8AC306D
:103580001B7807F18800039302940191009233465F
:103590002A4657490DF01CFFD7F8B4301B781A465D
:1035A000D7F8B4305B781946D7F8B4309B7807F178
:1035B000700000930B464F490DF00AFFD7F8B43066
:1035C000DB781A46D7F8B4301B7907F15C004A491A
:1035D0000DF0FEFED7F8B4309B7A1A46D7F8B43017
:1035E000DB7A1946D7F8B4301B7B07F1480000930B
:1035F0000B4642490DF0ECFE0021002002F07CFF5A
:10360000002002F051FE07F1880203230021002070
:103610000CF038FC0CF0D4FB0346DB88194607F1AC
:103620007002032300200CF02DFC0CF0C9FB0346B4
:10363000DB885B00194607F15C02032300200CF0D5
:1036400021FC0CF0BDFB0346DB881A4613465B00E9
:103650001344194607F14802032300200CF012FC22
:10366000002002F021FE4FF47A60FEF751F80021AD
:10367000002002F041FF002002F016FE0123204A44
:10368000002100200CF0FEFB0CF09AFB0346DB88C7
:10369000194607F18802032300200CF0F3FB0CF01D
:1036A0008FFB0346DB881A4613465B00134419461A
:1036B0000323144A00200CF0E5FB002002F0F4FD87
:1036C00000BFBC37BD46F0BD9DDF0008703A010861
:1036D000A83A010818060020354300080800002019
:1036E000254300088D0600208E060020900600204D
:1036F000D03A0108F03A0108043B0108183B0108E0
:10370000283B01083C3B0108F0B599B004AF786054
:10371000922387F84F307B680133BB64BB6C1B7806
:10372000FF2B00F0C281FF2B00F38F82052B02D00C
:103730003E2B71D089E2BB6C02337B627B6AB3F8AB
:1037400001309AB2A14B9B899A4214D19F4B00221F
:103750009A819E4B002283F874209D480DF030FE24
:103760007B6AB3F801309BB219467B6ADB781A4654
:1037700098480DF0B5FD00F065FDB862BB6A0533F1
:103780001B781D46BB6A04331B781E46BB6A033395
:103790001B781A46BB6A02331B781946BB6A013391
:1037A0001B781C46BB6A1B7807F10C00039302943C
:1037B0000191009233462A4687490DF009FE002107
:1037C000002002F099FE002002F06EFD0123834AE2
:1037D000002100200CF056FB0CF0F2FA0346DB88C7
:1037E000194607F10C02032300200CF04BFB0CF0F0
:1037F000E7FA0346DB881A4613465B001344194672
:103800000323774A00200CF03DFB002002F04CFD22
:10381000012000F06BFC1BE2BB6C0233BB63BB6B93
:103820001B780C2B33D00C2B00F33D81012B72D075
:10383000032B40F03881BB6B01333B6369480DF0CB
:10384000BFFD3B6BB3F803309BB21846FCF752FE4A
:103850004FF00002644BFCF7B7FE02460B461046E1
:1038600019463B6BB3F805309BB21C463B6BB3F873
:1038700007309BB21A4613469B0013445B0001932A
:10388000009402460B4659480DF02AFD0CE1BB6B33
:1038900001337B6356480DF023FD7B6B1B78002BB7
:1038A00003D154480DF08CFD02E053480DF088FD23
:1038B000464B9B8907F1220207F1230118460AF0C3
:1038C0001DF9034687F84F3097F84F30002B03D08F
:1038D0004A480DF005FDE7E049480DF071FD97F805
:1038E0002330022B0DD197F82230022B09D197F803
:1038F0002330194697F822301A4642480DF0F0FC62
:10390000D2E097F82330194697F822301A463D48FE
:103910000DF0E6FCC8E0BB6B0133FB622B4B93F868
:1039200075301846FEF74CFDFB6AB3F801309BB2C8
:10393000194635480DF0D4FCFB6A9B7A1846FB6AA1
:103940005B7A1C46FB6A1B7A1D46FB6ADB791A46CA
:10395000FB6A9B791946FB6A5B790293019100929D
:103960002B462246014629480DF0BAFCFB6AB3F803
:103970000B309BB21846FCF7BDFD4FF000021A4B0E
:10398000FCF722FE02460B4610461946FB6AB3F8C6
:103990000D309BB21C46FB6AB3F80F309BB21A463F
:1039A00013469B0013445B000193009402460B46B0
:1039B0000E480DF095FC054B93F87430042B27D17D
:1039C000024B062283F8742026E000BF1806002070
:1039D000483B0108743B0108D03A0108283B010824
:1039E0003C3B0108B03B01080000F43FE43B010808
:1039F000503C0108803C01088C3C0108983C0108BF
:103A0000B83C0108D83C0108FC3C0108443D0108D1
:103A1000924B052283F87420FB6AB3F801309AB206
:103A20008E4B9A8100F00EFCB862BB6A05331B789E
:103A30001D46BB6A04331B781E46BB6A03331B78E2
:103A40001A46BB6A02331B781946BB6A01331B78DE
:103A50001C46BB6A1B7807F10C000393029401918A
:103A6000009233462A467E490DF0B2FC0CF0A8F9CC
:103A70000346DB88194607F10C02032300200CF0F3
:103A800001FA0CF09DF90346DB881A4613465B00E9
:103A9000134419460323734A00200CF0F3F9002065
:103AA00002F002FC00E000BFD2E0BB6C02337B649A
:103AB0007B6C1B889BB240F20A42934222DCB3F536
:103AC000806FC0F2C480A3F580630A2B00F2BF8030
:103AD00001A252F823F000BF113B0008F93B000897
:103AE000193B0008573B00084F3C00085F3B0008AB
:103AF0004F3C00082F3C0008933B0008A33B000804
:103B00009B3B000840F60E42934200F094809EE0FA
:103B100055480DF055FC97E054480DF051FC544BBE
:103B20003B64544B3B644D4B9B89396C184609F000
:103B300047F8034687F84F3097F84F30002B06D0F0
:103B400097F84F3019464C480DF0CAFB7CE04B48C3
:103B50000DF036FC78E04A480DF032FC74E049483C
:103B60000DF02EFC3D4B9B89184609F04EFA03469A
:103B700087F84F3097F84F30002B06D097F84F302A
:103B8000194641480DF0ACFB5EE040480DF018FCD2
:103B90005AE03F480DF014FC56E03E480DF010FC92
:103BA00052E03D480DF00CFC7B6C0233D3F8023040
:103BB00019463A480DF094FB7B6C0233D3F802307F
:103BC000194637480DF08CFB244B9B890121184680
:103BD00009F06FFA034687F84F3097F84F30002B03
:103BE00006D097F84F3019462E480DF079FB2BE0A0
:103BF0002D480DF0E5FB27E07B6C0233FB632B487F
:103C00000DF0DEFBFB6B9B78002B03D128480DF0F9
:103C1000D7FB08E0FB6B9B781946FB6BDB781A46F9
:103C200024480DF05DFB0A200DF06CFB0CE02248EF
:103C30000DF056FB08E021480DF052FB074B9B8925
:103C4000184609F049FD00BF01E000BF00E000BFD9
:103C5000012318465437BD46F0BD00BF18060020AA
:103C6000D03A0108943D0108A03D0108D03D01086B
:103C700007B2010040E20100F83D01082C3E0108B6
:103C8000543E0108803E0108A43E0108D43E0108CC
:103C9000FC3E0108283F0108583F01088C3F0108FD
:103CA000A83F0108C03F0108104001085840010822
:103CB000844001089C400108D840010800410108E7
:103CC00080B582B000AF9223FB7109F07AF9034608
:103CD000FB71FB79002B05D0FB79194605480DF0E7
:103CE000FFFA02E004480DF06BFB00BF0837BD4649
:103CF00080BD00BF284101085C41010880B582B049
:103D000000AF9223FB710B4B9B89184609F06CF8AE
:103D10000346FB71FB79002B05D0FB791946064859
:103D20000DF0DEFA02E005480DF04AFB00BF08374F
:103D3000BD4680BD1806002088410108C041010829
:103D400080B582B000AF064B3B60064B7B603B46C4
:103D5000194605480AF006F900BF0837BD4680BD80
:103D600028000320BF43000887430008B0B58CB08B
:103D700006AF4FF450733B809223FB75A9480DF0BA
:103D80001FFB09F097FE0346FB75FB7D002B05D05A
:103D9000FB7D1946A4480DF0A3FA02E0A3480DF0FC
:103DA0000FFB00F04FFA38613A690621002009F054
:103DB00095FD0346FB75FB7D002B05D0FB7D194669
:103DC0009B480DF08DFA21E09A480DF0F9FA3B6915
:103DD00005331B7818463B6904331B781C463B6946
:103DE00003331B781D463B6902331B781A463B6937
:103DF00001331B7819463B691B78029301910092AD
:103E00002B46224601468C480DF06AFA3B69053381
:103E10001A788A4B1A723B6904331A78874B5A72A4
:103E20003B6903331A78854B9A723B6902331A78DF
:103E3000824BDA723B6901331A78804B1A733B6903
:103E40001A787E4B5A737E4A1021182009F046FDDD
:103E50000346FB75FB7D002B05D0FB7D1946794899
:103E60000DF03EFA02E078480DF0AAFA774A1021E8
:103E7000082009F033FD0346FB75FB7D002B05D0C0
:103E8000FB7D194672480DF02BFA02E071480DF0E7
:103E900097FA1821012009F0A6FD0346FB75FB7D6A
:103EA000002B05D0FB7D19466B480DF019FA02E096
:103EB0006A480DF085FA09F063F90346FB75FB7D4E
:103EC000002B05D0FB7D194665480DF009FA02E08C
:103ED00064480DF075FA0023FB73FB7B43F001038C
:103EE000FB73FB7B002B35D05F4BBB60BA1DF87BAF
:103EF000BB1C01933B1D009313460722002108F0D1
:103F0000C6FE0346FB75FB7D002B05D0FB7D1946E5
:103F100056480DF0E5F902E055480DF051FAFC88DD
:103F2000BD88B868FCF78CF90346DAB2BB68009329
:103F3000134600222946204609F025FB0346FB755F
:103F4000FB7D002B03D04B480DF03AFA02E04A48C3
:103F50000DF036FAF88879883B4600930223002258
:103F600009F011FB0346FB75FB7D002B03D0434892
:103F70000DF026FA02E042480DF022FA0222022158
:103F8000002009F039FE0346FB75FB7D002B05D0B0
:103F9000FB7D19463B480DF0A3F902E03A480DF0CD
:103FA0000FFA3A4B01221A70384B1B78184608F06A
:103FB000EFFC0346FB75FB7D002B05D0FB7D19460E
:103FC00033480DF08DF902E032480DF0F9F92F4B2E
:103FD00001225A702D4B0822DA702C4B10221A71D4
:103FE0002A4B01229A70294B9878284B5978274BF5
:103FF000DB78264A127900240494002403940124D7
:104000000294019200930023012208F015FD03465B
:10401000FB75FB7D002B41D0FB7D19461E480DF042
:104020005FF93EE0EC4101081842010848420108EE
:1040300068420108CC420108204301080800002022
:104040004C4F01085C430108B44301085C4F010870
:10405000FC430108544401089C440108DC44010865
:104060000C45010840450108644501086C450108FC
:104070009C450108BC450108F0450108244601089B
:10408000584601088C460108C84601081806002059
:10409000F446010834470108644701080E480DF052
:1040A0008FF90E4B9B78002B0FD008F066FF03466C
:1040B000FB75FB7D002B05D0FB7D194608480DF0F4
:1040C0000FF902E007480DF07BF907480DF008F9F9
:1040D00000BF1837BD46B0BDB04701081806002024
:1040E000EC4701082C4801085C48010880B58CB0F9
:1040F00008AF0346FB719223FB72FB79012B06D1BB
:10410000414B1B88FB81414B1B88BB8105E04FF471
:10411000C863FB814FF47A63BB813D4B93F87530E4
:104120001846FEF74DF9FB79022B19D1384B93F85D
:104130007430012B04D0364B93F87430022B0FD11E
:1041400008F008FB0346FB72FB7A002B05D0FB7AD4
:10415000194630480DF0C4F802E02F480DF030F950
:104160002B4AFB7982F87430294B9B7BBA89F989F9
:104170000020069000200590284804900393284BC7
:10418000029306230193002300930023002008F0EC
:1041900005FB0346FB72FB7A002B05D0FB7A194620
:1041A00020480DF09DF802E01F480DF009F91F4965
:1041B0000E2008F070FE0346FB72FB7A002B0ED037
:1041C000FB79012B05D1FB7A194619480DF088F8C7
:1041D00017E0FB7A194617480DF082F811E0FB79D9
:1041E000012B0AD114480DF07BF8094B93F8753078
:1041F00012491846FEF768F903E011480DF070F80F
:1042000000BF1037BD4680BD8E06002090060020FE
:104210001806002088480108D44801082706002015
:104220006C4F01081C49010854490108080000208E
:104230007C490108B0490108E849010846E001004D
:10424000104A010880B586B000AFFFF7B7F83861B3
:104250003B69B3F1FF3F23D0FFF7C8F8B860FFF721
:10426000B9F878603B69DAB2164B1A703B691B0AE1
:10427000DAB2144B5A707B68DAB2124B9A70BB6890
:10428000DAB2104BDA70BB681B0ADAB20D4B1A7146
:10429000BB681B0CDAB20B4B5A710A4B7B610BE00B
:1042A00000200AF065FAF860FB68002B02D0FB687A
:1042B0007B6101E0044B7B617B6918461837BD4682
:1042C00080BD00BF10060020444F010880B483B0B9
:1042D00000AF0346FB80124B9B7B1946FB88DAB28A
:1042E0000F4B0B44DA730E4B9B7B0133DAB20C4B52
:1042F0009A73FB881B0A9AB2094B9B7B1946D2B270
:10430000074B0B44DA73064B9B7B0133DAB2044B49
:104310009A7300BF0C37BD465DF8047B704700BF41
:104320001806002080B500AF002101200CF098F99C
:1043300000BF80BD80B500AF0220FFF7D7FE00BFF1
:1043400080BD80B582B000AF7860002104200CF001
:1043500087F900BF0837BD4680BD80B582B000AF89
:10436000786001200CF0E8F900BF0837BD4680BD39
:1043700080B582B000AF786001200CF0FDF900BF7D
:104380000837BD4680BD80B584B000AF78607B68DB
:10439000FB60FB685B68083318460BF0B7F903460F
:1043A000FB72FB7A002B03D0FB6801221A7003E03A
:1043B000FB6800221A7000BF1037BD4680BD80B573
:1043C00084B000AF0346FB71FB79002B02D0012BB8
:1043D00006D00BE00F23FB60F8680CF06DF905E0E8
:1043E0000F23FB60F8680CF087F900BF00BF10379F
:1043F000BD4680BD80B582B000AF074B3B60042353
:104400003B713B46194642F6292009F085FD00BF65
:104410000837BD4680BD00BF404A010880B582B064
:1044200000AF78607B681B78022B1AD0022B1EDC51
:10443000002B02D0012B07D019E00F4B00229A80ED
:104440000D4B01221A7313E00B4B5B7B1846FDF7F3
:10445000B7FF094B5B7B40F601011846FEF734F8C5
:1044600006E0054B5B7B1846FDF7AAFF00E000BFA6
:1044700000BF0837BD4680BD9406002080B582B0DD
:1044800000AF1F4A002102200CF0C8F81D4B00228B
:104490001A731C4B04221A701A4942F638200AF08B
:1044A00023F9184B1F22DA72164BDB7A03F008034C
:1044B000002B02D0134B0A229A80124BDB7A03F0B6
:1044C0001003002B12D00F4B01229A720023FB71B4
:1044D00009E0FB790B4A5B0013444FF48062DA80F9
:1044E000FB790133FB71FB79002BF2D0064B0122E3
:1044F00006490020FDF7EAFE00BF0837BD4680BD33
:10450000114500089406002019460008A106002065
:1045100080B588B002AF00F087F8034603F00703C8
:1045200041337B617B699AB2354B5A80344BDB7ADD
:1045300003F00803002B0AD0314B1B7B002B06D164
:104540002F4B9B8805339AB22D4B9A8006E02C4B5B
:104550001B7B012B02D12A4B00221A73294942F6F8
:1045600037200AF0C1F80021002001F0C5FF00202B
:1045700001F09AFE224B5B881A463B4622491846B8
:104580000CF026FF0BF01CFC0346DB8819463A466C
:10459000022300200BF076FC194B9B881A463B4601
:1045A0001A4918460CF014FF0BF00AFC0346DB888E
:1045B0001A4613465B00134419463A46022300206C
:1045C0000BF060FC124B009340234022002100209E
:1045D00000F036F8002001F067FE4FF49670FDF70A
:1045E00097F80C4B0093402340220021002000F05C
:1045F00027F8002001F058FE00BF1837BD4680BDE7
:104600009406002096060020444A01084C4A0108FE
:1046100074510108744F010880B500AF00210220D9
:104620000CF01EF800BF80BD80B400AF034B9B6A46
:104630009BB21846BD465DF8047B704700280040D9
:1046400090B587B000AF0446084611461A46234687
:10465000FB800346BB800B467B8013463B800023D8
:104660007B6100233B6100237B730023FB810023DC
:104670007B6138E000233B612EE03B69DBB203F055
:1046800007037B73FB89BA6A13441B781A467B7B4A
:1046900002FA03F303F08003002B0AD0FA883B6987
:1046A000D118BA887B691A440023002001F088FFE2
:1046B00009E0FA883B69D118BA887B691A44FF235C
:1046C000002001F07DFF7B7B072B02D1FB890133AA
:1046D000FB813B6901333B617B883A699A42CCD3C9
:1046E0007B6901337B613B887A699A42C2D300BF00
:1046F00000BF1C37BD4690BD80B400AF054BDB68E2
:10470000044A43F40043D36000BFBD465DF8047B18
:10471000704700BF0004005880B483B000AF7860D9
:10472000064BD3F8D42005497B681343C1F8D43035
:1047300000BF0C37BD465DF8047B70470008005889
:1047400080B483B000AF7860054B1A6A04497B6877
:1047500013430B6200BF0C37BD465DF8047B704706
:104760000008005880B485B000AF78604FF0B043C7
:104770001A6D4FF0B0417B6813430B654FF0B043A7
:104780001A6D7B681340FB60FB6800BF1437BD46A1
:104790005DF8047B704780B485B000AF78604FF05F
:1047A000B043D3F850214FF0B0417B681343C1F8B8
:1047B00050314FF0B043D3F850217B681340FB6079
:1047C000FB6800BF1437BD465DF8047B704780B4BA
:1047D00083B000AF78607B681B6843F480327B68ED
:1047E0001A6000BF0C37BD465DF8047B704780B48B
:1047F00083B000AF78607B681B6843F001027B6880
:104800001A6000BF0C37BD465DF8047B704780B46A
:1048100083B000AF786039607B685A683B681B04DE
:10482000DB431A407B685A6000BF0C37BD465DF819
:10483000047B704780B483B000AF786039607B68D8
:104840005A683B681B041A437B685A6000BF0C37E8
:10485000BD465DF8047B704780B483B000AF7860DC
:1048600039607B685A683B68DB431A407B685A6052
:1048700000BF0C37BD465DF8047B704780B483B041
:1048800000AF786039607B683A689A6000BF0C3787
:10489000BD465DF8047B704780B483B000AF78609C
:1048A00039603B681A047B689A6000BF0C37BD46CC
:1048B0005DF8047B704780B483B000AF78603960E6
:1048C0007B68DA683B6813403A689A4201D1012359
:1048D00000E0002318460C37BD465DF8047B7047A6
:1048E00080B483B000AF786039607B68DA693B6878
:1048F00013403A689A4201D1012300E00023184690
:104900000C37BD465DF8047B7047000080B500AFF2
:1049100002211848FFF7E4FF0346002B08D0154B8F
:104920005B6803F00203002B02D100F025F91EE0C2
:1049300001211048FFF7D4FF0346002B08D00D4B90
:104940005B6803F00103002B02D100F099F80EE040
:1049500008210848FFF7C4FF0346002B08D0054B89
:104960005B6803F00803002B02D100F07DF900BF63
:1049700000BF80BD000C005880B500AF0221184870
:10498000FFF799FF0346002B08D1154B5B6803F432
:104990000033002B02D100F0D3F81EE008211048AC
:1049A000FFF789FF0346002B08D10D4B5B6803F42A
:1049B0000023002B02D100F019F90EE02021084855
:1049C000FFF779FF0346002B08D1054B5B6803F422
:1049D0000013002B02D100F05FF800BF00BF80BDC4
:1049E000000C005880B500AF4FF48010FFF7D3FEE5
:1049F0004FF40070FFF7A4FE4FF40070FFF78CFE39
:104A000040BF20BFFFF778FE00BF80BD80B500AF7C
:104A10004FF48010FFF7A6FE0648FFF7E8FE0548B2
:104A2000FFF7D5FE2C2002F090F92D2002F08DF931
:104A300000BF80BD000C005880B584B000AFEFF31C
:104A400010837B607B68FB6072B600BF0121064863
:104A5000FFF702FFFB68BB60BB6883F3108800BFF1
:104A600000BF1037BD4680BD000C005880B500AFB8
:104A700001210248FFF710FF00BF80BD000C005865
:104A800080B500AF0AF026FF01210248FFF7F6FECD
:104A900000BF80BD000C005880B584B000AFEFF3BC
:104AA00010837B607B68FB6072B600BF20210748E3
:104AB000FFF7C0FEFB68BB60BB6883F3108800BFD4
:104AC0000AF038FF00BF1037BD4680BD000C00580B
:104AD00080B584B000AFEFF310837B607B68FB6030
:104AE00072B600BF02210648FFF7B6FEFB68BB6046
:104AF000BB6883F3108800BF00BF1037BD4680BD80
:104B0000000C005880B584B000AF02210B48FFF7BD
:104B1000C3FEEFF310837B607B68FB6072B600BF5F
:104B200002210648FFF773FEFB68BB60BB6883F396
:104B3000108800BF00BF1037BD4680BD000C005874
:104B400080B584B000AFEFF310837B607B68FB60BF
:104B500072B600BF02210748FFF76CFEFB68BB601E
:104B6000BB6883F3108800BF0AF038FF00BF10371E
:104B7000BD4680BD000C005880B500AF0AF044FF70
:104B800002210248FFF77AFE00BF80BD000C0058EA
:104B900080B586B000AF786008211248FFF78BFE21
:104BA0000346002B13D0104A7B681360EFF3108389
:104BB000FB60FB687B6172B600BF08210948FFF704
:104BC00026FE7B693B613B6983F3108805E07B68C7
:104BD000984708210348FFF75FFE00BF1837BD461E
:104BE00080BD00BF000C0058A406002080B584B032
:104BF00000AFEFF310837B607B68FB6072B600BF91
:104C000008210A48FFF716FEFB68BB60BB6883F308
:104C1000108800BF064B1B68984708210348FFF720
:104C20003BFE00BF1037BD4680BD00BF000C0058E2
:104C3000A406002080B584B000AFEFF310837B6042
:104C40007B68FB6072B600BF08210648FFF704FED0
:104C5000FB68BB60BB6883F3108800BF00BF1037E0
:104C6000BD4680BD000C005880B500AF0AF074FF4F
:104C700008210248FFF702FE00BF80BD000C00586B
:104C800080B584B000AF786039607B68002B03D1B9
:104C90004FF0FF33FB601CE03B681A687B681A60CA
:104CA0003B685A687B685A603B689A687B689A6080
:104CB0003B68DA687B68DA603B681A697B681A616E
:104CC0007B680C4A9A617B680B4A5A617B687A68F8
:104CD000DA617B681B68002B04D07B681B689847EF
:104CE000F86002E04FF0FF33FB60FB6818461037B6
:104CF000BD4680BD855B0008B35B000880B586B00B
:104D000000AFF860B9607A6000237B61FB68002B1C
:104D100002D07B68002B03D04FF0FF337B61ABE008
:104D2000FB6893F82030002B40F0A380FB68012241
:104D300083F82020FB687A685A626421F86800F0E2
:104D40006BFF8023FB74FB6803F1140007F113026F
:104D50000123012100F07AFF02467B6913447B6145
:104D60008D23FB74FB6803F1140007F11302012388
:104D7000012100F06BFF02467B6913447B61142321
:104D8000FB74FB6803F1140007F1130201230121F6
:104D900000F05CFF02467B6913447B612023FB74B7
:104DA000FB6803F1140007F113020123012100F055
:104DB0004DFF02467B6913447B610023FB74FB6853
:104DC00003F1140007F113020123012100F03EFF5B
:104DD00002467B6913447B614023FB74FB6803F14B
:104DE000140007F113020123012100F02FFF0246F6
:104DF0007B6913447B61C823FB74FB6803F11400D7
:104E000007F113020123012100F020FF02467B6914
:104E100013447B61A123FB74FB6803F1140007F1C9
:104E200013020123012100F011FF02467B691344A4
:104E30007B61AF23FB74FB6803F1140007F11302DD
:104E40000123012100F002FF02467B6913447B61CC
:104E5000002000F0C5FEFB6803F114004FF48063EE
:104E60000B4A012100F0F2FE02467B6913447B618C
:104E700002E04FF0FF337B617B69002B02D04FF0E3
:104E8000FF337B617B6918461837BD4680BD00BF84
:104E9000B006002080B584B000AF78600023FB60CE
:104EA0007B6893F82030002B0AD0786800F05EF819
:104EB0000246FB681344FB607B68002283F82020D5
:104EC000FB68002B02D04FF0FF33FB60FB681846F5
:104ED0001037BD4680BD80B483B000AF78603960C4
:104EE0004FF0FF3318460C37BD465DF8047B704722
:104EF00080B584B000AF78600023FB608D23FB7227
:104F00007B6803F1140007F10B020123012100F07B
:104F10009DFE0246FB681344FB601423FB727B6812
:104F200003F1140007F10B020123012100F08EFEB2
:104F30000246FB681344FB60AF23FB727B6803F1FE
:104F4000140007F10B020123012100F07FFE02464D
:104F5000FB681344FB60FB68002B02D04FF0FF336B
:104F6000FB60FB6818461037BD4680BD80B584B035
:104F700000AF78600023FB608D23FB727B6803F138
:104F8000140007F10B020123012100F05FFE02462D
:104F9000FB681344FB601023FB727B6803F1140071
:104FA00007F10B020123012100F050FE0246FB68CD
:104FB0001344FB60AE23FB727B6803F1140007F11E
:104FC0000B020123012100F041FE0246FB6813445D
:104FD000FB60FB68002B02D04FF0FF33FB60FB68E7
:104FE00018461037BD4680BD80B483B000AF7860EE
:104FF00039604FF0FF3318460C37BD465DF8047B2F
:10500000704780B483B000AF786039604FF0FF33F1
:1050100018460C37BD465DF8047B704780B483B0FA
:1050200000AF786039604FF0FF3318460C37BD464B
:105030005DF8047B704780B483B000AF786039605E
:105040004FF0FF3318460C37BD465DF8047B7047C0
:1050500080B485B000AFF860B9607A604FF0FF337C
:1050600018461437BD465DF8047B704780B584B0A0
:1050700000AF78600023FB604023FB727B6803F184
:10508000140007F10B020123012100F0DFFD0246AD
:10509000FB681344FB602123FB727B6803F114005F
:1050A00007F10B020123012100F0D0FD0246FB684D
:1050B0001344FB600023FB727B6803F1140007F1CB
:1050C0000B020123012100F0C1FD0246FB681344DD
:1050D000FB607F23FB727B6803F1140007F10B0276
:1050E0000123012100F0B2FD0246FB681344FB607E
:1050F0002223FB727B6803F1140007F10B020123EA
:10510000012100F0A3FD0246FB681344FB6000236D
:10511000FB727B6803F1140007F10B0201230121EC
:1051200000F094FD0246FB681344FB600F23FB7202
:105130007B6803F1140007F10B020123012100F049
:1051400085FD0246FB681344FB607B6803F1140095
:105150004FF48063094A012100F078FD0246FB68A4
:105160001344FB60FB68002B02D04FF0FF33FB6061
:10517000FB6818461037BD4680BD00BFB006002052
:1051800080B58EB000AFF860B9607A603B600023F4
:105190007B630023BB6200237B6200233B6200230E
:1051A000FB610023BB6100237B6100233B61002383
:1051B0003B630023FB623B6802331B781A463B6863
:1051C00003331B781B021A443B6804331B781B040F
:1051D0001A443B6805331B781B0613447B623B680B
:1051E0000A331B781A463B680B331B781B021A44A0
:1051F0003B680C331B781B041A443B680D331B7847
:105200001B061344BB623B6812331B781A463B688B
:1052100013331B781B021A443B6814331B781B049E
:105220001A443B6815331B781B061344FB613B682B
:1052300016331B781A463B6817331B781B021A4437
:105240003B6818331B781B041A443B6819331B78DE
:105250001B0613443B627A6ABB6AD31A5B087B6203
:105260003A68BB6A13443B60BB68002B16D1BB682D
:10527000002B0CBF01230023DAB27B6AB3F5806FE9
:105280000CBF01230023DBB21340DBB2002B05D09F
:105290007A6A396843480CF014FA78E0BA68FB6916
:1052A0001344BB617A683B6A13447B617B683B6152
:1052B00069E03B697B600023FB625AE07B6803F096
:1052C0000703002B21D17A697B68D31A072B1CD9DD
:1052D000FB6A03F00703002B17D1FB6ADB08FA69AE
:1052E00003FB02F23B6B13443A681A447B68DB0809
:1052F000D901BB680B4411782A4AD1547B68073323
:105300007B60FB6A0733FB622DE0FB6ADB08FA690E
:1053100003FB02F23B6B13443A6813441B781A46B2
:10532000FB6A03F0070342FA03F303F00103002BC7
:105330000CD0FF237A68B968F86800F03DFA03469C
:10534000002B10D04FF0FF337B6316E000237A6808
:10535000B968F86800F030FA0346002B03D04FF02C
:10536000FF337B6309E07B6801337B60FB6A0133B9
:10537000FB627A687B699A42A0D3BB680133BB6049
:105380003B6B01333B63BA68BB699A4291D37B6B39
:10539000002B02D04FF0FF337B637B6B184638370E
:1053A000BD4680BDB006002080B590B000AFF8606B
:1053B000084611461A4603467B810B463B8113463D
:1053C000FB800023FB630023BB6200237B6200237E
:1053D000BB6300237B6300233B620023FB6100234C
:1053E000BB6100237B6100233B630023FB6200233E
:1053F0003B61FB6C02331B889BB27B62FB6C04330A
:105400001B889BB21B041A467B6A13437B62FB6CAE
:105410000A331B889BB2BB62FB6C0C331B889BB2AC
:105420001B041A46BB6A1343BB62FB6C12331B8816
:105430007B63FB6C14331B881B047A6B13437B6305
:105440007B6B3B62B7F90630002B09DBFA887B895E
:1054500013447B81B7F906307A6BD31A7B6308E07B
:10546000B7F906307A6B13447B63B7F906305B42B9
:105470003B63FB6C16331B88BB63FB6C18331B88C8
:105480001B04BA6B1343BB63B7F94830002B0ADB2C
:10549000B7F94830BA6BD31ABB63B7F848203B89D9
:1054A00013443B8108E0B7F94830BA6B1344BB633F
:1054B000B7F948305B42FB62FB6A3B617A6ABB6AC0
:1054C000D31A5B087B62B7F90630BA6B02FB03F3B1
:1054D000DA08B7F94830796B01FB03F3DB081344B2
:1054E0007A6AD31A7B62FA6CBB6A1344FB647B89C9
:1054F000002B16D17B89002B0CBF01230023DAB2CD
:105500007B6AB3F5806F0CBF01230023DBB213402D
:10551000DBB2002B05D07A6AF96C45480CF0D1F863
:105520007AE07B897A6B1344FB613B89BA6B134445
:10553000BB613B897B616BE07B693B813B69FB62C3
:105540005CE03B8903F007039BB2002B22D13B892F
:10555000BA69D31A072B1DD9FB6A03F00703002B86
:1055600018D1FB6ADB083A6A03FB02F23B6B134477
:10557000FA6C1A4479893B89DB089BB2DB010B4446
:1055800011782B4AD1543B8907333B81FB6A07339F
:10559000FB622DE0FB6ADB083A6A03FB02F23B6B1D
:1055A0001344FA6C13441B781A46FB6A03F0070392
:1055B00042FA03F303F00103002B0CD079893A89F6
:1055C000FF23F86800F0F8F80346002B10D04FF0E6
:1055D000FF33FB6316E079893A890023F86800F00D
:1055E000EBF80346002B03D04FF0FF33FB6309E0D9
:1055F0003B8901333B81FB6A0133FB623B89BA691A
:105600009A429ED87B8901337B813B6B01333B639C
:105610007B89FA699A428FD8FB6B002B02D04FF03E
:10562000FF33FB63FB6B18464037BD4680BD00BFB0
:10563000B006002080B588B000AFF860B9607A602D
:105640003B600023FB610023BB6132E000237B61F0
:1056500028E03B681B781A463B6801331B781B0225
:105660001A433B6802331B781B041A433B6803331D
:105670001B781B0613433B61BA687B69D1187A68B3
:10568000BB691A443B69F86800F096F80346002BA2
:1056900002D04FF0FF33FB613B6804333B607B6912
:1056A00001337B617A69BB6A9A42D2D3BB69013309
:1056B000BB61BA69FB6A9A42C8D3FB6918462037B6
:1056C000BD4680BD80B586B000AFF860B9607A6035
:1056D0003B6000237B6100233B61BB683B6108E0CA
:1056E0003B6A7A683969F86800F066F83B6901330B
:1056F0003B61BA683B6813443A699A42F0D37B69CC
:10570000002B02D04FF0FF337B617B6918461837BE
:10571000BD4680BD80B586B000AFF860B9607A60E4
:105720003B6000237B6100233B617B683B6108E0B9
:105730003B6A3A69B968F86800F03EF83B690133A2
:105740003B617A683B6813443A699A42F0D37B69BB
:10575000002B02D04FF0FF337B617B69184618376E
:10576000BD4680BD80B588B002AFF860B9607A6090
:105770003B6000237B6100233B6113E03A697B6857
:105780001A447B6A00933B68B968F868FFF79AFF90
:105790000346002B03D04FF0FF337B6106E03B69EB
:1057A00001333B613A693B6A9A42E7D37B69184609
:1057B0001837BD4680BD000080B487B000AFF860E8
:1057C000B9607A603B6000237B613B68FF2B17D197
:1057D0007B68DB08D901BA680A441C498A5C51B26B
:1057E0007A6802F00702012000FA02F252B20A437C
:1057F00051B2DA01BB681344C9B2144AD15418E05B
:105800007B68DB08D901BA680A4410498A5C51B246
:105810007A6802F00702012000FA02F252B2D24383
:1058200052B20A4051B2DA01BB681344C9B2074A06
:10583000D1547B69002B02D04FF0FF337B617B6931
:1058400018461C37BD465DF8047B7047B006002043
:1058500080B487B000AFF860B9607A603B60002325
:105860007B61BB687F2B02D87B683F2B03D93B68E9
:1058700000221A601CE07B68DB08DA01BB68134475
:105880000F4AD35C19467B6803F00703012202FA32
:1058900003F30B401A463B681A603B681B68002BF9
:1058A00003D03B6801221A6002E03B6800221A60C4
:1058B0007B6918461C37BD465DF8047B704700BF06
:1058C000B006002080B485B000AF78603960002356
:1058D000FB607B685B6A002B03D13B6880221A6007
:1058E00002E04FF0FF33FB60FB6818461437BD46FB
:1058F0005DF8047B704780B485B000AF7860396094
:105900000023FB607B685B6A002B03D13B6840226D
:105910001A6002E04FF0FF33FB60FB681846143753
:10592000BD465DF8047B704780B584B000AF7860F9
:105930000B467B800023FB607B88DBB263F04F0368
:10594000DBB2FB727B6803F1140007F10B02012349
:10595000012100F07BF90246FB681344FB60FB6801
:10596000002B02D04FF0FF33FB60FB681846103766
:10597000BD4680BD80B584B000AF78600B467B80AB
:105980000023FB600023FB727B6803F1140007F126
:105990000B020123012100F059F90246FB68134470
:1059A000FB607B88DBB2FB727B6803F1140007F1BC
:1059B0000B020123012100F049F90246FB68134460
:1059C000FB601F23FB727B6803F1140007F10B02DD
:1059D0000123012100F03AF90246FB681344FB6001
:1059E000FB68002B02D04FF0FF33FB60FB681846CA
:1059F0001037BD4680BD80B586B000AFF860084660
:105A000011461A4603467B810B463B811346FB80B9
:105A100000237B617B89DBB2FB74FB6803F114001C
:105A200007F113020123012100F010F902467B69FE
:105A300013447B610023FB74FB6803F1140007F13E
:105A400013020123012100F001F902467B6913448E
:105A50007B613B89DBB2FB74FB6803F1140007F147
:105A600013020123012100F0F1F802467B6913447F
:105A70007B613B8CDBB2FB74FB6803F1140007F124
:105A800013020123012100F0E1F802467B6913446F
:105A90007B61FB88DBB2FB74FB6803F1140007F148
:105AA00013020123012100F0D1F802467B6913445F
:105AB0007B610023FB74FB6803F1140007F1130200
:105AC0000123012100F0C2F802467B6913447B6187
:105AD000FF23FB74FB6803F1140007F11302012399
