:020000040800F2
:100000000000032071160008C10F0008C30F00088C
:10001000C5160008C5160008C51600080000000037
:10002000000000000000000000000000C50F0008F4
:10003000C70F000800000000C90F0008CB0F000820
:10004000C5160008C5160008C5160008DB0F000815
:10005000C5160008C5160008C5160008C516000814
:10006000C5160008C5160008C5160008C516000804
:10007000C5160008C5160008C5160008C5160008F4
:10008000C5160008C5160008C5160008C5160008E4
:10009000C5160008C5160008C5160008C5160008D4
:1000A000C5160008C5160008C5160008C5160008C4
:1000B000C5160008C5160008C5160008C5160008B4
:1000C000C5160008C5160008C5160008C5160008A4
:1000D000CF0F0008C5160008C5160008C516000891
:1000E000C5160008C5160008C5160008C516000884
:1000F000E30F0008DF0F0008C5160008C51600084A
:10010000C5160008C5160008C5160008C516000863
:10011000C5160008C5160008C5160008C516000853
:10012000C5160008C5160008D50F0008C51600083A
:0C013000C5160008C5160008C51600081A
:1001400010B5054C237833B9044B13B10448AFF311
:1001500000800123237010BD680100200000000012
:100160006039000808B5034B1BB103490348AFF3DE
:10017000008008BD000000006C010020603900080C
:100180004FF0B04382B0DA6C0243DA64DB6C0340B8
:100190000193019B02B070474FF0B04382B0D3F897
:1001A0004C210243C3F84C21D3F84C310340019356
:1001B000019B02B070470000F0B58BB00322002411
:1001C0004FF0B0454FF460430120CDE9003269465D
:1001D000CDE902440494FFF7D3FF4FF0904001F0C3
:1001E00077FEEB6C3B4F23F00103EB6402201823F6
:1001F00069460093FFF7C4FF374801F069FEEB6CD6
:1002000023F00203EB6401F001FC01F007FC01F0B4
:100210000DFC142221460DEB020003F067FBDFF812
:10022000B8C0DFF8B8E0214625462646BA1F17F8C1
:100230003100CB0058B152F83100604541D07045D3
:1002400043D0B0F1904F02D113449B881E4301313B
:100250002629ECD101200323069008937EB105A93D
:100260000596FFF78DFFFFF797FF4FF0904001F0E5
:100270002FFE002231464FF0904001F0DFFE75B1B5
:10028000022005A90595FFF77BFFFFF785FF1248C0
:1002900001F01EFE10480022294601F0CFFE74B185
:1002A000042005A90594FFF76BFFFFF775FF0B48C6
:1002B00001F00EFE09480022214601F0BFFE0BB0FE
:1002C000F0BD13449B881D43C1E713449B881C4326
:1002D000BDE700BFA139000800040048000800483D
:1002E00070B50C4B88B001AA03F1180615461868C2
:1002F0005968144603C40833B3422246F7D119881B
:100300009B782180A37003F0FFF8284602F0FDFDE2
:1003100008B070BD80390008BFF34F8F0549064B08
:10032000CA6802F4E0621343CB60BFF34F8F00BF93
:10033000FDE700BF00ED00E00400FA05704738B5A6
:100340004568B5F80B30B3F5124F044621D10020B3
:1003500001F0F6F96D7BEDB94FF0B042D2F84831BB
:1003600023F48053C2F848314FF000531A78022A20
:1003700002D11D70FFF7D0FFFFF7B2FF012002F09E
:10038000E1FD2946012003F039F900F07FFE012349
:10039000237038BD002002F076FDFF280446E9D026
:1003A00070B1002001F0BEF942F2107000F02AFD99
:1003B000002002F068FD1038C0B21F28F4D9D9E738
:1003C0004FF000531A78022A0AD1187002F082FD09
:1003D000204601F0A7F90121002001F03DFEFAE7D7
:1003E00002221A70014602F060FD204601F09AF9DF
:1003F00042F2107000F006FD002002F044FD1038BB
:10040000C0B21F28F4D9B5E710B54FF0B0448AB098
:10041000A36843F40043A36003F0E6F8264A2749A3
:10042000D2F8803023F0070343F00403C2F8803091
:10043000002000F025FAFFF7BFFE0121084603F077
:10044000DDF8002001F04CF9012001F049F902200B
:1004500001F046F9012001F065F90121002001F0C9
:100460007DF9D4F8483143F48053C4F84831D4F8C6
:10047000483103F480530193019B02F04DFF104A71
:100480000021022003F024FA0E4B029302A90E4B26
:100490000E48039302F072FE0D4B04930D4B05932F
:1004A0000D4B069304A840F23C53079302F0FEFF65
:1004B00002F030FF0AB010BD0004005828020020EE
:1004C000DD310008100403203D0300083F0300084D
:1004D000F8010320040303201C05032003F0A4B843
:1004E0004FF0FF3003F00AB90021022003F0BCB83E
:1004F000022003F0E9B8022003F0B8B900207047E9
:100500002DE9F04F012487B0CDE904141F46DFF830
:1005100088A0DFF88090DFF884B0019202230646BD
:100520000D460393DAF8100010F40020FAD1EFF32F
:10053000108872B6D9F8183043BBD9F89C305B45A7
:100540001BD19EB902A903A801F05AFC114B4FF42C
:100550008062DA6188F310880F4A13695B03FCD468
:10056000B4FA84F0400907B0BDE8F08F019A3B4629
:100570002946012001F0FEFBE8E788F310880120FE
:10058000FFF7BCFF04460028CCD1E5E788F31088CC
:10059000F6E700BF00140058004000580004008037
:1005A00082B0014600230193019B222B05D9002232
:1005B0000023002002B0FFF7A3BF019B0133F2E745
:1005C000F8B50D46134B14490746D1F888209A42D6
:1005D000FBD101F07BFB012002F0A5FC00242646A4
:1005E000AE4203D154B10135A81BF8BD002CFAD19D
:1005F000F019FFF7D5FF01360446F1E7204602F077
:1006000092FC01F075FB044B4FF480629A60204627
:10061000EBE700BF000400800014005801460120F1
:10062000FFF76EBF2DE9F041134B0E46134980468C
:100630001546D1F888209A42FBD101F047FB0024EF
:10064000083E2746AF4204D174B10135E81BBDE82E
:10065000F081002CF9D108EBC700F6E90223FFF77F
:10066000DDFF01370446EDE701F042FB034B4FF499
:1006700080629A602046EAE7000400800014005877
:10068000054A906A936A80B29BB2984200D1704743
:10069000916A18468BB2F8E70028004010B50D4C5F
:1006A0002368013313D0FFF7EBFF236883423DBF7C
:1006B000094B22681B88236838BF9B18181A074B00
:1006C0001B785843064B1B78D84080B210BD0020E1
:1006D000FBE700BF78000020860100208801002091
:1006E000890100202DE9F0413C4E3D4B32689B686A
:1006F000176813F4806F03D0FB6813F0040FFAE758
:10070000BB68DFF8F88023F48063BB60354B1B784F
:100710001822DDB202FB03839C68FFF7BFFFA042F3
:10072000314B06D901221A70002418214FF0000C19
:100730001CE02E490A8810FA82F2A24239BF0C88C6
:100740000022241A012234BFA4B2A4B21A70ECE72A
:1007500001FB058301FB05859A68904297BF9A6863
:10076000C3F808C0121A9A606D7DEDB2062DEFD164
:1007700044B9FFF785FF1E4BBDE8F0411860032028
:1007800001F0D4B9012C03D11A4B1B78012B01D0F5
:10079000013CA4B2FB685B07FCD5FB68DBB263F4E9
:1007A0009063FB60144B4FF40022DA60032001F0E9
:1007B000CBF90B4A53696FF30F0323435361FFF7E0
:1007C0005FFF0B4B186033681A68936843F48063CB
:1007D0009360AFF30080BDE8F08100BF8C01002082
:1007E000002800407D0000207400002084010020CB
:1007F00078000020890100200008005880000020B7
:10080000F0B51B4A137883421A4B17D114781A4D4E
:10081000E4B22C70182404FB0034647DE4B214703C
:10082000182404FB0033012018731378062B04D11D
:1008300019B9124B4FF0FF321A60F0BD182707FBB1
:100840000034267D94F815E094F815C007FB0636B1
:100850005FFA8CFCBEF1060F86F815C018BF267D26
:100860005FFA8EF51EBF07FB0534F6B22675D7E793
:100870007D000020800000207C0000207800002007
:1008800070B5414C21600968CA234B6253234B6207
:100890003E4B9A6842F020029A609D683C4A05F0FF
:1008A0000705C5F10405EDB215701A694FF4FE068F
:1008B00002F4FE0296FAA6F6B6FA86F6F240013285
:1008C000344ED2B232701B69334EC3F30E03013380
:1008D0003380013B5343A3F5A073EB404FF6FE7208
:1008E00093422E4A8CBF4FF6FF739BB213802C4A63
:1008F000136843F400231360D2F8803043F40023DC
:10090000C2F88030002838D1264B01251D70264BB7
:100910004FF0FF351D60254B187383F8240083F8D2
:100920003C0083F8540083F86C0083F88400204B6B
:10093000062018708B6823F480638B60CB68DBB271
:1009400063F49063CB604FF40023D360032001F085
:10095000FBF823681A68936843F480439360236824
:100960001B68FF2203215A620846002201F078F832
:10097000BDE87040032001F0A5B8CB685B05EED55B
:10098000032001F0D3F8EAE78C01002000280040A2
:1009900089010020880100208601002084010020B8
:1009A000000800587400002078000020800000201B
:1009B0007D000020F8B50446EFF3108672B6244D92
:1009C000032001F08DF82F683B68CA225A62532237
:1009D0005A62204B182202FB04331B7B022B25D1C9
:1009E00000212046FFF70CFF1B4B1B78062BDAB2C9
:1009F00026D11A4B9A683B6812F4806F03D0DA68EC
:100A000012F0040FFAE79A6822F480629A60DA68BA
:100A10005207FCD5DA68D2B262F49062DA60104B09
:100A20004FF40022DA60032001F08EF82B681B6877
:100A3000FF225A62032001F045F886F31088F8BDC2
:100A4000084B1B789342F1D0FFF74CFEEEE700BF56
:100A50008C010020800000207D0000200028004044
:100A6000000800587C0000202DE9F047504C182366
:100A700003FB004305461B7B022B0F4601D1FFF70A
:100A800099FFEFF3108672B6DFF83491032001F07E
:100A900027F8D9F800301B68CA224FF0180A5A62AA
:100AA0000AFB054853225A62022388F80C30C8F822
:100AB0000870C8F804703F4F3B78062BDAB21ED19D
:100AC0003B783D49DBB20B703C4B3D7088F81520FC
:100AD0004FF0FF321A600020374A3B7812789A4272
:100AE0005FD0FFF7FFFDD9F800301B68FF225A6284
:100AF000032000F0E7FF86F31088BDE8F087FFF7DA
:100B0000CDFDD8F808300344C8F80830D8F80810EC
:100B10003B780AFB03439B68994225D33A78D3B2CA
:100B20000AFB0242527DD2B2062A04D00AFB0242DC
:100B30009268914214D2182202FB0341497D5FFA68
:100B400081FC06291CBF02FB0C421575182202FB12
:100B5000054181F815C00B7502FB03435D75BBE7CA
:100B60000AFB03435A7DDAE73B783A789342D9B2DD
:100B70000AFB03F311D023441A7D5FFA82FC0AFBBF
:100B80000242557588F8151088F814C01D753B7819
:100B9000094ADBB213703D709EE788F815102344B4
:100BA000F4E7182303FB0544A3681B1AA3609AE724
:100BB000800000207D0000207C00002078000020C4
:100BC0008C010020104700002DE9F84FEFF310854D
:100BD00072B62B4C2B4923681B684FF0CA094FF0A3
:100BE0005308C3F82490C3F824809A6822F48062E2
:100BF0009A60254A12781820D6B242438F18387B63
:100C000002282FD1214B51F802B0D7F810A01B7841
:100C10001BB37B7B012BD9B219D13046FFF7F0FD16
:100C200085F3108879683046FFF71EFF23681B683C
:100C30005A46C3F824903146C3F824805046FFF743
:100C4000C1FF23681B68FF225A62BDE8F88F85F355
:100C500010883046FFF7AEFEE8E7FFF743FD85F367
:100C60001088EEE7DA685207FCD5DA68D2B262F48F
:100C70009062DA60064B4FF40022DA60EFE700BFC3
:100C80008C010020800000207D00002074000020E6
:100C90000008005810B9024801F05CBB704700BF63
:100CA0009401002018B9024BD86F00F0C5BF7047FF
:100CB000940100200268044B9A4203D1034B1B6845
:100CC00003B11847704700BF003801409001002071
:100CD000474B07B54FF0B0444FF400421A6100F0A3
:100CE0005FFED4F894305B0113D5D4F89430D8006B
:100CF0000FD401F0A9F901F0A7F9D4F8903043F42A
:100D00008033C4F89030D4F8903023F48033C4F8A2
:100D100090304FF0B0443F22236D43F4801323659D
:100D2000236D03F480130193019B324B9A609A6107
:100D30005A6842F47C125A605A6942F47C125A6131
:100D40005A6842F03F025A605A6942F03F025A61C3
:100D500001F07AF901F078F9D4F8903043F001030A
:100D6000C4F89030D4F890309907FBD5D4F894307B
:100D700023F4404343F48043C4F894301E4BD3F82B
:100D800080200022C3F88020D3F8902002F0500287
:100D9000C3F8902001F058F901F056F9D4F89030DA
:100DA000164823F4407343F48073C4F89030D4F8A9
:100DB000903043F40043C4F890300F22104C04608C
:100DC00047F6FF73C0E9022301F041FACA236362C8
:100DD00053236362A36823F00703A360FF236362C6
:100DE000FFF712FB4FF0FF3002F088FCFAE700BF7C
:100DF00000400058000C005800080058280200204D
:100E00000028004070B5044600F0E6FD631C05466E
:100E100002D000F0E7FD0444064E04E0336923F0FD
:100E20000403336130BF00F0D7FD431BA342F5D369
:100E300070BD00BF00ED00E07047000008B500F095
:100E4000D7FD034A136923F00403136130BF08BDC3
:100E500000ED00E000F0D3BD1C4B4FF480621A613E
:100E600002F10042D3F88C109142FBD14FF0B04315
:100E70009A6802F00C02042A21D11A6842F48032E6
:100E80001A60134A136823F0070343F00103136049
:100E9000136803F00703012BFAD14FF0B042136837
:100EA0009B03FCD5936823F0030343F00203936094
:100EB0004FF0B042936803F00C03082BFAD1034BB8
:100EC0004FF48062DA6000F09ABD00BF0014005851
:100ED0000040005800F093BD4FF0B0431A6842F450
:100EE00080721A601A685205FCD59A6822F00302D3
:100EF00042F001029A605A6A22F003025A624FF0ED
:100F0000B042936803F00C03042BFAD17047000041
:100F100008B50F4A0F4BD2F88C109942FBD1D2F88A
:100F200090209A4206D0FFF7D7FF094B4FF480621A
:100F3000DA6008BD084BD3F88820120403D4D3F834
:100F400088305B05F1D5024B4FF480621A61EAE705
:100F500000140058000400800004005808B500F098
:100F600047FDFFF7D5FF084A1F239361136823F05D
:100F7000070343F003031360044A136943F00403B7
:100F8000136130BF08BD00BF0004005800ED00E051
:100F900008B500F02DFDFFF7BBFF074A136823F0EB
:100FA000070343F002031360044A136943F0040388
:100FB000136130BF08BD00BF0004005800ED00E021
:100FC0007047FEE770477047704700F0F9BC00209B
:100FD000FFF760BE0020FFF765BEFFF7F5BD00F02C
:100FE000ADBA00F015BB10B504464068083001F0FA
:100FF00037FC003818BF0120207010BD00B589B043
:101000000A4A029200230822CDE90032CDE90533D5
:10101000CDE90333A0228021184601F045FC0449A4
:101020000E2009B05DF804EB01F03ABDEC3A00087F
:101030000800002010B1012803D07047012002F001
:1010400029BB02F035BB000008B50D4BD3F8802555
:10105000511C0DD00B48D3F884350270120A42702F
:101060001A0A8370C2701A0C1B0E0271437108BDFC
:10107000002002F06DFA044A002808BF1046F6E787
:101080000070FF1F4E020020143B0008F0B59DB019
:10109000432200210BA802F029FC6C4A6C4B6D48DE
:1010A000CDE91023A3F5D923A3F5927312934FF43E
:1010B000FA73ADF84C30684B4FF0FF31CDE91413A3
:1010C000664B1693A3F5CC03A3F5E8531793644B33
:1010D000199309AF634B09933946634B0A9301F0A7
:1010E00041FF0121022002F089FA01205F4A00211C
:1010F00002F0EEFB0BA801F0FAFE08B1FFF79CFE30
:101100000025ADF81C5001F09DFEFFF79DFF06463F
:10111000574C02460621284601F040FE737923729F
:1011200033796372F378A372B378E37273782373BD
:101130003378504A63731021182001F02FFE4E4A75
:101140001021082001F02AFE1821012001F054FE90
:1011500001F0D0FC0DF122030093072208AB2946D1
:101160000197012001F05AFC444BBDF82210009376
:101170002A460723BDF8200001F086FD07ABBDF825
:10118000241000932A460223BDF8200001F07CFDC4
:10119000284601F0E1FB01211023CDE901310823AC
:1011A0002A46009308462B46CDE9035501F0F8FB8B
:1011B00001F03EFB324B4FF400421A614FF00052F7
:1011C000D3F8803050780528DBB20DD81570BFF306
:1011D0004F8F2C492C4BCA6802F4E0621343CB605A
:1011E000BFF34F8F00BFFDE791780A18934238BFD5
:1011F000191AFFF7E5F9FFF727FF437923720379FF
:101200006372C378A3728378E3724378237303789D
:101210000133637343798DF8293003798DF82830D1
:10122000C3788DF8273083788DF8263043788DF891
:10123000253003783A460133062100208DF824300A
:1012400001F0ACFDFFF7DAFE1DB0F0BD4400080070
:1012500040050201E70F0008480101000020D80600
:101260000D0004002800032035100008C12F0008DD
:1012700008000020043B0008F43A0008E43A0008A3
:101280000040005800ED00E00400FA0508B543787E
:101290003E2B07D0FF2B0FD0052B01D1FFF7AEFE61
:1012A000012008BDC378012BFAD18279437943EA42
:1012B0000223074A1380F3E7B0F8032040F60E43F9
:1012C0009A42EDD1024B188801F010FDE8E700BF0B
:1012D0004C0200200021012002F0C6B9012002F0DA
:1012E000F3B9012002F0C2BA2DE9F7430279012ACD
:1012F000054628D0032A60D0AAB901680B78022BD2
:1013000014D0072B16D0012B0DD14A4B5A744FF035
:1013100000601860C978197029688978597029683F
:10132000497899701A7403B0BDE8F083414B0120ED
:101330005874ECE701230DF1070102208DF8073006
:1013400001F02EFAEFE73B4C46794FF0000804F12C
:101350000809207CC0F10802B2420CD9002EE2D06C
:10136000354B296818443246414402F0EBFA237C9D
:1013700033442374D7E729684844414402F0E2FA31
:10138000206801224946FFF74DF984460028F7D12D
:101390002068E36842680768A1689A4208BF8F42E4
:1013A000D7D1237C84F810C0A3F108020830C3F120
:1013B0000803206016449844CBE71E4C207CA0B95B
:1013C000647C5CB3012CAED14FF0005300221A7044
:1013D000BFF34F8F19491A4BCA6802F4E0621343F6
:1013E000CB60BFF34F8F00BFFDE704F10805C0F1EC
:1013F0000802FF21284402F079FA2368D3E90002A9
:10140000D4E902139A4208BF8842D9D02068012249
:101410002946FFF707F90028F8D1EEE7204601F04A
:1014200032FD204601F02FFD0121002000F014FEC6
:10143000FAE700BF580200206002002000ED00E043
:101440000400FA054FF0B04382B0D3F8502142F4C3
:101450008012C3F85021D3F8503103F48013019364
:10146000019B0A4B1A6A42F400721A62D3F8D42024
:1014700042F40072C3F8D42040BF20BF044AD368AE
:1014800043F40043D36002B0704700BF0008005827
:10149000000400584FF0B04307B51A6D42F48012B3
:1014A0001A651B6D03F480130193019B084B1A68A6
:1014B00042F001021A601A6842F480321A602C204D
:1014C00000F000FB2D2003B05DF804EB00F0FABA49
:1014D000000C0058EFF3108172B6044A536823F0F1
:1014E0000103536081F31088704700BF000C00585F
:1014F000024B4FF480329A60704700BF000C0058D6
:10150000EFF3108172B6044A536823F0020353606C
:1015100081F31088704700BF000C0058064B4FF451
:1015200000329A60EFF3108172B65A6822F40032EA
:101530005A6081F310887047000C005810B51E4C9B
:10154000E36899070ED463689A030BD4EFF3108213
:1015500072B6636843F40033636082F3108801F06D
:1015600083FF10BDE3681B0712D4636818030FD410
:10157000EFF3108272B6636843F40023636082F372
:1015800010880E4B1B6898474FF40023A360E8E7D0
:10159000094BDA689106E4D45A689202E1D4EFF379
:1015A000108172B65A6842F400125A6081F31088B2
:1015B00001F028FFD5E700BF000C005870020020A2
:1015C00010B50A4CE3681B070BD5094B1860EFF305
:1015D000108272B6636823F40023636082F310887C
:1015E00010BD80474FF40023A360F9E7000C0058BA
:1015F00070020020EFF3108172B6044A536823F0A2
:101600000803536081F31088704700BF000C005836
:1016100010B5104CE3699A0707D563689B0704D49B
:1016200001F02EFF0223A36010BDE369D80706D5A1
:101630006368D90703D401F0CFFE0123F3E7054C1B
:10164000E3691A07F0D563681B07EDD401F06EFF5C
:101650000823E8E7000C0058D458C4500433C418D9
:101660008C42F9D37047036004308842FBD3704743
:101670000C4885460C480D490D4A0023FFF7EFFF43
:101680000C480D490023FFF7F0FF0C480C490023DC
:10169000FFF7EBFF00F0EEF802F030F9FFF718FB70
:1016A000FEE7000000000320080000207400002076
:1016B000F43B000868010020A4030020E40103209B
:1016C000670A0320FEE74FF0B04382B0DA6C0243B2
:1016D000DA64DB6C03400193019B02B070470000A9
:1016E000F0B587B00446002502200595FFF7EBFF13
:1016F0000A4B0B4E33F814700490012356F8240063
:10170000019701A9CDE9023500F0E2FB56F824006B
:101710002A46394600F092FC07B0F0BD243B000891
:1017200024000020044B33F81010044B012253F81E
:10173000200000F083BC00BF243B000824000020F0
:10174000044B33F81010044B002253F8200000F033
:1017500075BC00BF243B00082400002030B587B0D2
:1017600004460D461422002101A802F0BFF8BCB9BE
:101770000420FFF7A8FFC5B9194B33F81430CDE9A1
:10178000013501250223CDE90353164B01A953F876
:10179000240000F09DFB2846FFF734FB07B030BD66
:1017A000631E012BE7D80820E3E7012DF6D10C4B8F
:1017B000039533F8143001934FF404130293094B4B
:1017C00001A953F8240000F083FB074B1C570022AB
:1017D00020460F2100F044F9204600F073F9DDE7C0
:1017E0001E3B0008180000201A3B00080C4BD3F8E1
:1017F00040210C4BB2F1006FD3F880300DD31B03A6
:1018000003F47F2303F10063043B9A4205D8106878
:10181000054BC31A5842584170470020704700BF1B
:101820000070000800400058298A4494054A08B511
:10183000054B93601A6882F308885B68984730BF4D
:1018400008BD00BF00ED00E00070000808B5FFF71C
:10185000CDFF4FF0005328B100221A70BDE80840B8
:10186000FFF7E4BF01221A7007225A70FF229A7014
:1018700008BD000008B54FF0B043D3F89420D10064
:1018800048D4D3F894309A0144D4FFF7DFFF2E4AAE
:10189000D2F8883043F47003C2F88830002001F099
:1018A00057FE68B14FF0B042284B8179C2F89C30A6
:1018B000D2F89C3023F47C5343EA0123C2F89C30D5
:1018C0004FF0B042136843F48033136002F5804256
:1018D000136823F0070343F001031360136803F058
:1018E0000703012BFAD14FF0B04213689B03FCD5DC
:1018F000936823F0030343F0020393604FF0B04377
:101900009A6802F00C02082AFAD11A6822F0010241
:101910001A6008BD4FF000510B7883B9FFF766FFDE
:1019200010B1FFF783FFB2E7FFF760FF0028ACD1EB
:1019300001230B7007234B70FF238B70A7E7013B3C
:10194000012BA2D8A3E700BF00ED00E0FECAFECA4B
:101950007047000038B5104C237805460BB90120BC
:1019600038BD00F013FC22784FF47A73B3FBF2F326
:10197000B0FBF3F000F0C6F804460028EFD10F2DBD
:10198000EDD8024629464FF0FF3000F069F8034BCE
:1019900020461D60E4E700BF34000020380000202E
:1019A00010B5032000F04AF80F20FFF7D3FF0446DC
:1019B00018B9FFF7CDFF204610BD0124FBE700005A
:1019C000034A044B11681B780B441360704700BF37
:1019D0007402002034000020014B1868704700BFDB
:1019E00074020020014B1878704700BF34000020BB
:1019F0004FF0E022136923F00203136170474FF0A8
:101A0000E022136943F0020313617047024A5368EE
:101A100023F0010353607047002004E0024A53683A
:101A200023F0020353607047002004E0024A536829
:101A300023F0040353607047002004E00749CA689C
:101A400022F4E0620302120403F4E063120C134375
:101A500043F0BF6343F40033CB60704700ED00E018
:101A6000164B30B5DC68C4F30224C4F10703251D0E
:101A7000042B28BF0423062D4FF0FF358CBF033CF9
:101A8000002405FA03F321EA0303A54022EA050234
:101A9000A340002843EA0203ACBF00F16040084ABB
:101AA0004FEA0313B8BF00F00F00DBB2AABF00F586
:101AB0006140135480F8003330BD00BF00ED00E0FA
:101AC00014ED00E0002807DB044A4109012300F07F
:101AD0001F00834042F82130704700BF00E100E062
:101AE00000280CDB4309064900F01F0020330122C7
:101AF000824041F82320BFF34F8FBFF36F8F7047B1
:101B000000E100E00138B0F1807F0BD24FF0E0231C
:101B1000054A5861F02182F82310002007229861BD
:101B20001A6170470120704700ED00E0002808DBD3
:101B30004309044900F01F0001224033824041F86C
:101B40002320704700E100E0002808DB4309044936
:101B500000F01F0001226033824041F823207047CB
:101B600000E100E0034640B190F82520022A06D0AB
:101B70000422C263002280F82420012070470268FA
:101B8000806C116821F00E011160016821F48071F0
:101B90000160116821F001011160D3E9100202F027
:101BA0001C0101228A404260D3E9132151605A6D21
:101BB00032B1116821F480711160D3E916215160AE
:101BC0000122002083F8252083F82400704708B5FF
:101BD00090F82530022B03D00423C363012008BDF5
:101BE00003681A6822F00E021A601A6822F00102D5
:101BF0001A60826C136823F480731360D0E91013A9
:101C000003F01C02012393404B60D0E913325A6069
:101C1000436D33B11A6822F480721A60D0E916322B
:101C20005A60012380F82530002380F82430836B2C
:101C300003B198470020D2E7016C426C036870B48E
:101C400002F01C020E681D680424944034420ED039
:101C500015F0040F0BD01A6892065EBF1A6822F0C6
:101C600004021A60036B4C6073B370BC1847022403
:101C70009440344212D015F0020F0FD01A68950626
:101C800006D41A6822F00A021A60012380F825306F
:101C900000234C6080F82430C36AE5E708249440B0
:101CA000344211D02C070FD51C6824F00E041C60A0
:101CB000012303FA02F24A60C36380F8253000234F
:101CC00080F82430436BCFE770BC7047064B5A69ED
:101CD000002ABFBF054A9A6002F188329A60BABFF3
:101CE0005869C00F00207047004000582301674525
:101CF000044B5A6942F000425A615869C043C00F10
:101D0000704700BF0040005870B50546FFF764FEFD
:101D1000164E04463369D8031AD43369D90744BF31
:101D2000012232611A0442BF4FF40042326123F4AF
:101D300000434CF2FA32134011D10C4E306910F4CA
:101D400080200BD0FFF748FE001BA842F6D304E02A
:101D5000FFF742FE001BA842DCD3032070BD034AFC
:101D60001361034A01205360F8E700BF00400058A8
:101D7000780200202DE9F041184D98462B78012B70
:101D800006460C46174626D001232B704FF47A7076
:101D900000236B60FFF7B8FFA0B9012E16D1104ADF
:101DA000536943F0010353612760BFF36F8FC4F899
:101DB00004804FF47A70FFF7A7FF094A536923EABA
:101DC0000603536100232B70BDE8F081394620469D
:101DD00001F0D2FDEDE70220F6E700BF7802002017
:101DE00000400058054A536923F4FF6343EAC000EA
:101DF00040F4803040F002005061704700400058CD
:101E00002DE9F041304F3B78012B0546884659D0EB
:101E100001233B704FF47A7000237B60FFF774FF5F
:101E20000446002847D12B68022B1CD14FF0FF330A
:101E3000C8F800306E68D5E901321344B3420BD9BB
:101E40003046FFF7CFFF4FF47A70FFF75DFF0028B1
:101E500036D0C8F8006004461C4A536923F4FF6377
:101E600023F002035361194B1A6891050FD51A68C4
:101E700022F400721A601A6842F400621A601A684A
:101E800022F400621A601A6842F400721A600F4B62
:101E90001A6852050FD51A6822F480621A601A680F
:101EA00042F480521A601A6822F480521A601A684A
:101EB00042F480621A6000233B702046BDE8F08146
:101EC0000136B8E70224F8E7780200200040005805
:101ED0002DE9F04F574C00234FF00F090A6832FAF2
:101EE00003F501D1BDE8F08F012505FA03F818EAE2
:101EF000020200F094804E68032706F003054FEAC3
:101F0000430E07FA0EFC6F1E012F6FEA0C0C32D83D
:101F1000876807EA0C0ACF6807FA0EF747EA0A074C
:101F20008760476827EA0808C6F300179F4047EA1A
:101F300008074760C76807EA0C088F6807FA0EF7BA
:101F400047EA0807022DC76017D14FEAD30800EB14
:101F5000880803F0070AD8F820704FEA8A0A09FABD
:101F60000AFB27EA0B0B0F6907FA0AF747EA0B0788
:101F7000C8F8207001E0032DDCD1076805FA0EF5E2
:101F800007EA0C073D4316F4403F056047D023F0B5
:101F9000030707F1804707F5803703F0030EBD689C
:101FA0004FEA8E0E09FA0EFCB0F1904F25EA0C0CA8
:101FB00037D0214DA84236D005F58065A84234D0EF
:101FC00005F58065A84232D005F58065A84214BFAA
:101FD0000725042505FA0EF545EA0C05BD602568C0
:101FE000D74316F4801F0CBF3D401543256065683C
:101FF00016F4001F0CBF3D4015436560D4F88050B7
:1020000016F4803F0CBF3D401543C4F88050D4F80F
:102010008450B60354BF3D401543C4F88450013387
:102020005CE70025D6E70125D4E70225D2E70325A2
:10203000D0E700BF00080058000400480AB18161E1
:102040007047816270470000024A136843F480734E
:1020500013607047000400580D4B10B55B690C46C7
:1020600028B99A0507D500F01FF820B110BD9B05CF
:1020700001D400F011F8074A1369012C23F004037E
:10208000136101D130BFF1E740BF20BF20BFEDE7B2
:102090000004005800ED00E0024A136843F4804356
:1020A00013607047000400580C4A0D49136823F46C
:1020B000804313600B4B1B68B3FBF1F332214B439E
:1020C0005169890500D533B9536913F4007F14BFF2
:1020D000032000207047013BF2E700BF00040058D6
:1020E00040420F00300000204FF0B0439A6812F0D9
:1020F0000C020AD11B68224A03F0F003B02B28BF60
:10210000B0231B0952F823007047042A35D0082A4F
:1021100007D11B681B4813F4801F1B4B08BF1846D0
:102120007047DA6802F00302022A24D0032A1B68EF
:1021300017D113F4801F144B124908BF19464FF0F2
:10214000B043D868DA68DB68C0F30620C2F3021235
:102150005B0F484301320133B0FBF2F0B0FBF3F008
:10216000704703F0F003B02B28BFB023044A1B09CB
:1021700052F82310E3E70349E1E70248704700BF44
:102180002C3B00080024F4000048E80108B5FFF7E4
:10219000ABFF4FF0B043044A9B68C3F3031352F8FC
:1021A0002330B0FBF3F008BD6C3B00087047000023
:1021B00038B50368094ADA600446FFF70DFC0546A6
:1021C0002368DB689B0601D5002038BDFFF704FCBF
:1021D000401BB0F57A7FF3D90320F6E75FFF0100DB
:1021E000036870B5DC6814F04004054618D1DA685D
:1021F00042F08002DA60FFF7EFFB06462B68DB68EF
:102200005B0600D40CB1204670BDFFF7E5FB801BD8
:10221000B0F57A7F82BF042385F821300124EDE7F1
:102220000024F0E70368DA6822F0800210B5DA6073
:102230009B689B06044601D5002010BDFFF7B8FF40
:102240000028F9D0042384F821300120F5E738B5BF
:102250000446002847D090F8213003F0FF021BB954
:1022600080F82020FFF7A2FF022384F821302368A2
:10227000DA68D20604D5012384F82130002038BD65
:10228000CA225A6253225A622046FFF7A9FF20BB96
:10229000236820699A6822F4E00222F040029A60E2
:1022A000626899680243A06902430A439A60E2683F
:1022B0001A611A69A16842EA01421A612046FFF7D1
:1022C000B1FF50B922686569D36C23F00303D3646E
:1022D000E369D16C2B430B43D3642368FF225A621A
:1022E0000028C8D0CBE70120C9E7000010B502687C
:1022F00052E8003F23F4907342E80031026800295D
:10230000F5D10F4C02F1080353E8003F234002F1DE
:10231000080C4CE800310029F4D1C36E012B07D121
:1023200052E8003F23F0100342E800310029F7D1C2
:102330002023C0F88C300023C366436710BD00BF64
:10234000FEFFFFEF704708B5806AFFF7FBFF08BD8F
:10235000704700000368D9691A682DE9F04140F61A
:102360000F0631429D68044610D18E0640F19780D9
:1023700002F0200605F080573E4300F09080436F46
:10238000002B00F08580BDE8F0411847A84EA94811
:102390002E401040304300F08280CF0709D5D00591
:1023A00007D501201862D4F8900040F00100C4F86D
:1023B00090008F0709D5E80707D502201862D4F8E6
:1023C000900040F00400C4F890004F0709D5E807DA
:1023D00007D504201862D4F8900040F00200C4F839
:1023E00090000F070BD502F02000304307D00820E3
:1023F0001862D4F8900040F00800C4F890000E0570
:102400000AD5500108D54FF400601862D4F8903016
:1024100043F02003C4F89030D4F89030002B37D02C
:102420008B0609D502F0200205F080552A4303D01F
:10243000636F0BB1204698472668D4F89020B368A4
:1024400002F0280203F0400353EA0205204621D09F
:10245000FFF74CFFB3685F0617D5226802F1080347
:1024600053E8003F23F04003083242E800310029DE
:10247000F3D1D4F8800040B16F4B8363FFF7A7FB23
:1024800030B1D4F88000836B7DE72046FFF75AFF18
:10249000BDE8F081FFF756FFC4F89050F8E7E06E12
:1024A000012840F08D80CE0640F18A80D00640F1B0
:1024B000878010221A629968B4F85C20490651D5C9
:1024C000D4F880100868416889B2002942D091424E
:1024D00040D2A4F85E10026892062FD453E8002F71
:1024E00022F4807243E800210029F7D103F10802A9
:1024F00052E8002F22F0010203F1080040E8002119
:102500000029F3D103F1080252E8002F22F0400223
:1025100003F1080040E800210029F3D12022C4F88B
:102520008C20E16653E8002F22F0100243E80021DE
:102530000029F7D1D4F88000FFF714FB02232367AA
:10254000B4F85E30B4F85C10C91A89B22046FFF7BF
:10255000FFFE9DE791429BD103689B0698D502231D
:102560002367F3E7B4F85E10B4F85E0080B289B276
:1025700000288DD0521A91B2002989D053E8002F3B
:1025800022F4907243E800200028F7D12B4D03F18C
:10259000080252E8002F2A4003F1080646E800200E
:1025A0000028F4D12022C4F88C206067E06653E84C
:1025B000002F22F0100243E800200028F7D1CEE7D8
:1025C000CF0209D56E0207D54FF4801220461A6259
:1025D000BDE8F04100F040B808060BD502F08000DD
:1025E00005F40005284305D0A36F002B3FF450AF3E
:1025F0002046C8E64F0611D556060FD553E8002FE2
:1026000022F0400243E800210029F7D12023C4F83A
:102610008830A1672046FEF74DFB39E70D020FD544
:1026200050000DD52046BDE8F04100F017B800BFBE
:10263000010000102001000447230008FEFFFFEF07
:10264000CB017FF525AF002ABFF622AF2046BDE8BB
:10265000F04100F002B800BF7047704770470000BB
:102660001FB54378FF2B044645D1B0F8033040F640
:10267000134293422CD040F61742934220D040F6AA
:102680000142934237D11D49B0F807204B880133EE
:102690009A420FD100238DF80C3004F10D03029300
:1026A000B4F80B308DF80D3002A8FEF71DFE0120A6
:1026B00004B010BDCB8801339A421CD10123EAE754
:1026C0000E4B187A0028F3D000221A720323E2E797
:1026D0000A4BB0F80710DB88013399420BD100F1A7
:1026E0000A030193437A009300231A46B0F80500C9
:1026F00000F020FBDBE70020DAE700BF100100203C
:102700002DE9F04186B0204D204800F09FF8204987
:10271000009508230122022000F00AFA2B4600242B
:1027200033F8020B05930A274FF0010804263346BD
:10273000CDE90374CDE90148164A0096022100F064
:1027400047FA2B46144A33F8040B0194CDE90443AD
:1027500020230093CDE902474346022100F038FAD6
:102760002B460E4A33F8060B0397CDE90483032367
:10277000CDE901430096F823022100F029FA2C72DA
:1027800006B0BDE8F08100BF1001002061260008FE
:10279000DC3B0008CC3B0008BC3B0008AC3B00081D
:1027A00007B5064801230372009181880088002242
:1027B00000F06AFA03B05DF804FB00BF10010020CE
:1027C0007047704770477047704770477047704751
:1027D0007047704770477047704770477047704741
:1027E000704708B5FFF7ECFFFFF7EBFFFFF7EAFFD5
:1027F000FFF7E9FFFFF7E8FFFFF7E7FFFFF7E6FF67
:10280000FFF7E5FFFFF7E4FFFFF7E3FFFFF7E2FF66
:10281000FFF7E1FFFFF7E0FFFFF7DFFFFFF770FFD4
:10282000FFF7DDFFFFF7DAFFFFF7DAFF08BD000073
:1028300008B5044A00231377034A1370FFF7D1FF4A
:1028400008BD00BF200100201C010020034A137FA7
:1028500042F8230001331377704700BF20010020A6
:1028600070B54378FF2B04460CD1B0F8033003F465
:102870007F43B3F5406F05D10A4E0025327FEBB29E
:102880009A4204D82046BDE87040FEF7FFBC56F8D7
:1028900023302046984701350028EFD0023818BF72
:1028A000012070BD200100202DE9F04FCBB09C46E7
:1028B0009DF85461ADF82B209DF850219DF85C5196
:1028C0008DF828000AAC06F108034FF00008ADF8B7
:1028D00029108DF82E2056998DF82DC032460CA85F
:1028E00004EB030B01938DF82F608DF80F8000F03F
:1028F000C6FA019B5899E55405F1090737442A4661
:102900000BF1010000F0BBFA04EB070ABDF86431DB
:10291000E353BDF86831AAF802301822414609365F
:1029200004A800F0AEFA35440A4B04930DF10F09E8
:1029300001230435414604A8CDE9075906940993BB
:1029400000F074FB4045ACBF9DF80F00FF204BB07A
:10295000BDE8F08F3F00830070B5C8B000258DF84A
:1029600020001822294602A88DF8075000F089FAA5
:102970000A4B02930DF10704012308AE294602A871
:10298000CDE905340496079300F050FBA842ACBF94
:102990009DF80700FF2048B070BD00BF3F008500D4
:1029A00070B5C8B000268DF823309DF830318DF811
:1029B00024309DF834318DF825309DF838318DF86C
:1029C00026304F9B8DF820008DF821108DF82220A5
:1029D000CDF8273018229DF840318DF82B30314644
:1029E00002A88DF8076000F04CFA0B4B02930DF132
:1029F00007050C23CDE9053508AC0123314602A8B3
:102A00000494079300F012FBB042ACBF9DF807009E
:102A1000FF2048B070BD00BF3F0086002DE9F041A7
:102A2000C8B080460F4616460021072268461D465C
:102A300000F027FA1822002102A88DF820808DF8D6
:102A400021708DF8226000F01CFA144B02930323CE
:102A5000059308AC0723002102A80494CDF818D0F0
:102A6000079300F0E3FA002816DB9DF8000080B918
:102A7000009BC3F30F232B809DF804209DF80330A7
:102A800043EA02234E9A1380019B4F9AC3F30F230C
:102A9000138048B0BDE8F081FF20FAE73F008A00CC
:102AA000F0B5C9B000268DF82000024604460DF1AD
:102AB00021008DF8076000F0E2F91822314602A8E3
:102AC00000F0DFF90A4B02930DF10705012308AF6F
:102AD0000134314602A8CDE905450497079300F07B
:102AE000A5FAB042ACBF9DF80700FF2049B0F0BD89
:102AF0003F008E0010B5002488B01822214602A89D
:102B00008DF8074000F0BDF9084B02930DF1070363
:102B100006932146012302A8079300F087FAA042FA
:102B2000ACBF9DF80700FF2008B010BD3F000101B9
:102B30002DE9F04F0128C9B004468A4691461F4648
:102B40003BD0022814BF4FF001084FF0110801AD2F
:102B500003220021284608AE00F093F9012C3470BE
:102B60002ED0022C2ED1102406EB080B2246514603
:102B70000DF1210000F083F906F8089018220021D9
:102B80008BF8017002A800F07CF9104B029303341B
:102B90000323002102A8CDE905450496079300F020
:102BA00045FA002810DB287820B92B68529AC3F325
:102BB0000F23138049B0BDE8F08F4FF00308C6E73C
:102BC0000224D1E79720F5E7FF20F3E73F00020159
:102BD0002DE9F0430129C9B006460C4691469846B6
:102BE00047D0022914BF0327132708AD0322002171
:102BF00001A800F046F9012C2E80AC703BD0022CCD
:102C00003BD11024EE19224649460DF1230000F075
:102C100036F99DF8403125F80780B3709DF84431AE
:102C2000F3709DF8483133719DF84C3173719DF804
:102C30005031B3711822002102A800F022F90A34A1
:102C4000104B02930594032301AC002102A80495C4
:102C50000694079300F0EAF9002810DB9DF80400C1
:102C600020B9019B559AC3F30F23138049B0BDE8E7
:102C7000F0830527B9E70224C4E79720F6E7FF2091
:102C8000F4E700BF3F000401F0B5C9B00027ADF87C
:102C90002000ADF822108DF824204E998DF82530B3
:102CA0001A460DF126001C468DF8077000F0E7F873
:102CB0001822394602A800F0E4F80B4B02930DF1FC
:102CC0000706012308AD0634394602A8CDE90546BA
:102CD0000495079300F0AAF9B842ACBF9DF807002D
:102CE000FF2049B0F0BD00BF3F00060170B5C8B07D
:102CF0000025ADF820001822294602A88DF80750BB
:102D000000F0BFF80A4B02930DF107040223CDE94E
:102D1000053408AE0123294602A80496079300F063
:102D200085F9A842ACBF9DF80700FF2048B070BDF0
:102D30003F002501F0B5C9B000279DF83851ADF826
:102D40002000ADF822108DF824204F998DF8253001
:102D50002A460DF127008DF826508DF8077000F0F7
:102D60008EF81822394602A800F08BF80A4B02931D
:102D70000DF10706012308AC0735394602A8CDE955
:102D800005560494079300F051F9B842ACBF9DF882
:102D90000700FF2049B0F0BD3F002601F0B5C9B0E3
:102DA0000C46002611468DF8200022460DF1220027
:102DB0008DF821408DF8076000F061F81822314647
:102DC00002A800F05EF80B4B02930DF107050123FA
:102DD00008AF0234314602A8CDE9054504970793B0
:102DE00000F024F9B042ACBF9DF80700FF2049B0C5
:102DF000F0BD00BF3F000C0070B5C8B000258DF8D5
:102E000020008DF821101822294602A88DF80750BD
:102E100000F037F80A4B02930DF107040223CDE9C5
:102E2000053408AE0123294602A80496079300F052
:102E3000FDF8A842ACBF9DF80700FF2048B070BD68
:102E40003F000F0010B5002488B01822214602A8C8
:102E50008DF8074000F015F84FF0031302930DF1C1
:102E6000070306932146012302A8079300F0DEF82A
:102E7000A042ACBF9DF80700FF2008B010BD00F0D5
:102E800061BD00F033BD10B5002286B0044601AB31
:102E900011464FF6524000F0D7F914B19DF81330A7
:102EA00023709DF8120006B010BD1FB50B460146F9
:102EB00008B10090042113B104310193C9B26B46EB
:102EC0001A464FF6544000F0BFF99DF80E0005B0C9
:102ED0005DF804FB1FB500226B4611464FF65A40C1
:102EE00000F0B2F99DF80E0005B05DF804FB1FB5C7
:102EF00000F10C026B4637214FF6664000F0A4F952
:102F00009DF80E0005B05DF804FB1FB500F10C0242
:102F10006B460F214FF6684000F096F99DF80E00C1
:102F200005B05DF804FB1FB56B468DF800001A462E
:102F300001214FF6694000F087F99DF80E0005B0B9
:102F40005DF804FB1FB56B468DF800001A460121A1
:102F50004FF6734000F078F99DF80E0005B05DF86B
:102F600004FB000030B50F4D0F4B4A6885B00C468E
:102F7000E86128461A6000F0DDF80C48246800F08B
:102F8000F7FA0B4B0B481C6000F0F2FA0A4B0122D7
:102F90001A702B6823B1094A029400926846984738
:102FA00005B030BDA002002094020020980200204D
:102FB00044010020480100204001002001310008A8
:102FC0001FB5174800F0D7FAB8B9164C2378A3B14B
:102FD000134801A900F0FCFA134BDA690123C2B1CE
:102FE00001998DF80830039102A890479DF80830A8
:102FF000237083B1019800F079FA094800F0BBFA18
:1030000028B9084B1B7813B10548FEF763F904B0E3
:1030100010BD2370EEE70199014800F0B6FAECE725
:103020004801002040010020A00200202DE9F743C4
:103030002E4E336804460BB10020984763882288DF
:103040002B48DFF8B8900068C3F3090343EA8223F2
:10305000284A01211170D4E902120C3020F8033CF7
:1030600000F8012CD2B21FFA83F800F06BFC224B5F
:1030700000211B690846984748F2E800FEF731F93D
:103080000027484600F077FA48B1002FF4D03368A3
:103090000BB101209847002003B0BDE8F08301A9DF
:1030A000484600F095FA019D6B7A0F2B0BD1B5F8CD
:1030B0000D30434502BF2369EA7A1A702B7B002B3F
:1030C000DFD00127DDE7AB8943450CD1AA7A6369DC
:1030D0002069033AD2B29A42A8BF1A46626105F14A
:1030E0000E0100F02FFCEB7AE9E700BF940200200C
:1030F0004401002090020020A0020020980200203D
:1031000008B5437A0E3B012B014606D8074800F06C
:1031100048FA0020FEF7E2F808BD054800F041FA41
:10312000BDE808400248FEF7D5B800BF980200206D
:1031300048010020024B0360024B0361704700BF4F
:1031400075330008BD33000810B5054C0146204614
:1031500000F027FA2046BDE81040FDF7C5B900BFD2
:103160005D010020034B01201870034B1B6803B165
:10317000184770475C010020C402002030B5104D94
:10318000104B4A6885B00C46E86128461A6000F08A
:103190009FF80D4B24680D481C6000F0E9F9FFF71B
:1031A000E1FF0B4B01221A702B6833B1094A0192DF
:1031B000094A0394029201A8984705B030BD00BFA8
:1031C000C8020020C4020020580100205D01002038
:1031D00054010020C5320008493100081FB51748C6
:1031E00000F0C9F9B8B9164C2378A3B1134801A966
:1031F00000F0EEF9134BDA690123C2B101998DF8A1
:103200000830039102A890479DF80830237083B1DD
:10321000019800F06BF9094800F0ADF928B9084BA6
:103220001B7813B10548FDF75FF904B010BD23709A
:10323000EEE70199014800F0A8F9ECE75D010020F4
:1032400054010020C80200202DE9F8431D46184B08
:103250001B6807460C4616460BB100209847DFF85E
:103260006080144BD8F800004FF00009A0F80970F6
:10327000C472224631460C3083F8009000F062FBA5
:103280000D4B01221A700D4B49461B694846984761
:1032900048F2E800FDF72FF9D8F800108A7805F118
:1032A0000800033200F04EFBBDE8F843FFF75ABFB9
:1032B000C40200205C010020C0020020C8020020DF
:1032C0005801002008B50020FDF712F908BD0000E4
:1032D000024B0360024B0361704700BF11340008CA
:1032E0004D34000837B5094C094D084800F043F942
:1032F00008B103B030BD01A9204600F069F92B697F
:103300000199186900F04DF9EFE700BFF8020020BD
:1033100000000320FEF796B80B4B0C4A1A600C4ACB
:103320005A600C4A9A600C4A1A620C4A5A620C4A59
:10333000DA600C4A1A610C4A5A610C4A9A610C4ACA
:10334000DA61FEF7A7B800BF00000320C401032024
:10335000B4010320A40103209C0103209401032055
:103360008C010320700103206C0103206001032005
:103370005401032038B50C4D0446284600F0F8F8F7
:103380000A4BA2685B681A60E268DA60084AC3E91F
:103390000125FEF79FF8074B22681A60064B62680A
:1033A0001A60002038BD00BF3C010320000003204C
:1033B000580A0320F4020020F002002008B5054B53
:1033C0005A685B68126801211172FEF791F80020BB
:1033D00008BD00BF0000032037B5084C084D074862
:1033E00000F0C9F808B103B030BD204601A900F0D3
:1033F000EFF82B6801989847F1E700BF3C010320E4
:10340000F4020020014B1B68184700BFF0020020A7
:1034100038B50A4D0446284600F0AAF8084BA268C1
:10342000DB68C3E90025FEF76BF8064B22681A60DB
:10343000054B62681A60002038BD00BF34010320CC
:1034400000000320EC020020E802002008B5054B34
:10345000DA68DB68126810211172FEF75FF800204D
:1034600008BD00BF00000320034BDA68DA68034B95
:1034700010681B68184700BF00000320EC02002002
:1034800037B5084C084D074800F075F808B103B08F
:1034900030BD204601A900F09BF82B6801989847A1
:1034A000F1E700BF34010320E802002038B50C4DDD
:1034B0000446284600F05CF80A4800F059F80A4B28
:1034C000A2681B699A60E268C3E9032522681A6052
:1034D00062685A6022695A6162699A6138BD00BFA8
:1034E0004C010320F80200200000032008B501462B
:1034F000034800F056F8BDE808400248FEF760B8FF
:10350000F8020020E532000810B5054C204600F016
:103510002FF8044B5B691C60BDE81040FEF76AB8E9
:1035200044010320000003207047000013B5074C3E
:10353000064800F020F808B102B010BD204601A9ED
:1035400000F046F80198FFF7EFFFF1E74401032090
:103550000346054A0548C179994202D0904201D1FB
:10356000002070470838F6E70070FF1FF873FF1F50
:10357000006040607047EFF3108372B60268821AF1
:103580005042504183F310887047EFF3108372B6B6
:1035900002680A60486001600A68516083F310881D
:1035A0007047EFF3108372B6086042684A6041606A
:1035B0004A68116083F310887047EFF3108272B687
:1035C00043680168196001684B6082F31088704796
:1035D00010B5EFF3108472B603680B600068FFF754
:1035E000ECFF84F3108810BD024A00231360024AE6
:1035F00013607047040300200003002010B5EFF3B0
:10360000108472B641B1012903D1064A13680343FD
:10361000136084F3108810BD024A136823EA000384
:10362000F6E700BF0003002038B5EFF3108572B64F
:103630000A4B0B4C1B6833B1236898476368984763
:1036400085F3108838BD074B1B681BB1A3689847EA
:10365000E368F4E7236998476369F0E7040300200F
:10366000CC3A00080003002010B5EFF3108472B6C6
:10367000064A136803431360054A52F83130034386
:1036800042F8313084F3108810BD00BFA003002041
:103690000C030020EFF3108172B6044A136823EA8A
:1036A0000000106081F31088704700BF40000020C8
:1036B000EFF3108172B6034A13681843106081F368
:1036C0001088704740000020EFF3108172B6034A63
:1036D00013681843106081F3108870479C03002022
:1036E0007047704770477047704728B1B0FA80F054
:1036F000C0F11F00C0B270472020F9E72DE9F74F55
:10370000514F524E3B680193184033680093504B21
:10371000504DD3F800B0504B504CD3F80080504B74
:103720003860D3F80090009B3A6803EA080313421C
:1037300027D14B4C4FF0FF332B60236813EA0B0F5C
:1037400016D1FFF7CDFFEFF3108572B6404A42491C
:103750003368126809680B4039680B4204D123684A
:10376000134201D1FCF7BAFE85F31088FFF7B9FFC9
:10377000019B3B6003B0BDE8F08F0020FFF7B4FF72
:10378000D1E71BEA090FD4D12368236835491340D8
:103790006268086803EA08031A4204BF4FF0FF3268
:1037A0006260D6F800C0626860EA02020A602CEA31
:1037B000020213EA020002D102B90A6018466368E5
:1037C0001840FFF792FF2860EFF3108072B62A6866
:1037D0004FF0010A0AFA02FC326822EA0C02326057
:1037E000226822EA0C02226080F310882868FFF722
:1037F00079FF2A681F2AC0D81B4850F822000028E9
:10380000BBD061680AFA02F221EA02026260D4F8CF
:10381000049080476268286809EA02026260FFF744
:1038200062FF0B4A3368D2F800B00B4A0D48D2F859
:1038300000800B4A0093D2F800902A680AFA02F33B
:103840000268134303606EE73C000020A0030020E1
:103850009C03002094030020400000200C03002063
:103860009803002008030020140300202DE9F047EE
:10387000DFF85890134ED9F80080134FD6F800A007
:103880003060B8F1FF3F18BF0125044614BF05FAA8
:1038900008F500253B6823420ED0C9F80080EFF3FD
:1038A000108272B63B6823EA04033B6082F31088FF
:1038B000C6F800A0BDE8F08721462846FCF710FEB8
:1038C000E8E700BF980300209C0300209403002039
:1038D00008B5EFF3108372B6FFF707FF024941F80E
:1038E000202083F3108808BD1403002002440346FF
:1038F000934200D1704703F8011BF9E770B50D4DF5
:103900000D4C641BA4100026A64209D10B4D0C4C93
:1039100000F026F8641BA4100026A64205D170BD55
:1039200055F8043B98470136EEE755F8043B9847B5
:103930000136F2E7EC3B0008EC3B0008EC3B0008EA
:10394000F03B00080A44914200F1FF3300D1704778
:1039500010B511F8014B03F8014F9142F9D110BD98
:10396000F8B500BFF8BC08BC9E467047F8B500BF6C
:10397000F8BC08BC9E4670475FF800F04500002088
:103980000000000000000000000000009B3900085B
:10399000F4010320E4010320260404000000480190
:1039A0000000000000004801000000000000480185
:1039B0000000000000004801000000000000480175
:1039C0000000000000004801000000000000480165
:1039D0000000000000004801000000000000480155
:1039E0000000000000004801000000000000480145
:1039F0000000000000004801000000000000480135
:103A00000000000000004801000000000000480124
:103A10000000000000004801000000000000480114
:103A20000000000000004801000000000000480104
:103A300000000000000048010000000000004801F4
:103A400000000000000048010000000000004801E4
:103A500000000000000048010000000000004801D4
:103A600000000000000048010000000000004801C4
:103A700000000000000048010000000000004801B4
:103A800000000000000048010000000000004801A4
:103A90000000000000004801000000000000480194
:103AA0000000000000004801000000000000480184
:103AB0000000000000004801000000000000480174
:103AC0000000000000004801000000003D0E00085A
:103AD000D50E0008910F0008590E00085D0F000870
:103AE000550E0008424C45636F7265000953544DF2
:103AF0005F4F5441FEDCBA0987654321FEDCBA09F9
:103B000087654321123456789ABCDEF01234567819
:103B10009ABCDEF06C7AD8AC57720A060700100027
:103B2000010002002000010002000000A086010048
:103B3000400D0300801A060000350C0040420F00C3
:103B400080841E0000093D0000127A000024F40069
:103B500000366E010048E801006CDC020000000045
:103B60000000000000000000000000000100000054
:103B7000030000000500000001000000010000003B
:103B8000060000000A000000200000000200000003
:103B900004000000080000001000000040000000C9
:103BA00080000000000100000002000019ED82AE5C
:103BB000ED214C9D4145228E24FE000019ED82AE80
:103BC000ED214C9D4145228E23FE000019ED82AE71
:103BD000ED214C9D4145228E22FE00008FE5B3D59C
:0C3BE0002E7F4A982A487ACC20FE000074
:043BEC006501000867
:043BF0004101000887
:103BF4000DFF01860000000000000000000000002E
:103C040000080048000C0048000C0048000400486C
:103C1400000400480004004800093D0001000000C1
:103C240010000000FFFFFFFFFFFFFFFF0A4A536978
:103C340043F4802330B55361EFF3108472B600234C
:103C4400CD58C5500433B3F5007FF9D11369DB03B4
:0C3C5400FCD484F3108830BD0040005800
:103C60000000000000000000000000000000000054
:103C70000000000000000000000000000000000044
:103C80000000000000000000000000000000000034
:103C90000000000000000000000000000000000024
:103CA0000000000000000000000000000000000014
:103CB0000000000000000000000000000000000004
:103CC00000000000000000000000000000000000F4
:103CD00000000000000000000000000000000000E4
:103CE00000000000000000000000000000000000D4
:0C3CF000000000000000000000000000C8
:103CFC0000000000000000000000000000000000B8
:103D0C0000000000000000000000000000000000A7
:103D1C000000000000000000000000000000000097
:103D2C000000000000000000000000000000000087
:013D3C000086
:103D3D000000000000000000000000000000000076
:013D4D000075
:103D4E000000000000000000000000000000000065
:103D5E000000000000000000000000000000000055
:103D6E000000000000000000000000000000000045
:103D7E000000000000000000000000000000000035
:0345CE00000000EA
:040000050800167168
:00000001FF
